{
  "contractName": "NFTMarketplace",
  "abi": [
    {
      "inputs": [
        {
          "internalType": "string",
          "name": "_name",
          "type": "string"
        },
        {
          "internalType": "string",
          "name": "_symbol",
          "type": "string"
        },
        {
          "internalType": "address",
          "name": "_owner",
          "type": "address"
        }
      ],
      "stateMutability": "nonpayable",
      "type": "constructor"
    },
    {
      "anonymous": false,
      "inputs": [
        {
          "indexed": true,
          "internalType": "address",
          "name": "owner",
          "type": "address"
        },
        {
          "indexed": true,
          "internalType": "address",
          "name": "approved",
          "type": "address"
        },
        {
          "indexed": true,
          "internalType": "uint256",
          "name": "tokenId",
          "type": "uint256"
        }
      ],
      "name": "Approval",
      "type": "event"
    },
    {
      "anonymous": false,
      "inputs": [
        {
          "indexed": true,
          "internalType": "address",
          "name": "owner",
          "type": "address"
        },
        {
          "indexed": true,
          "internalType": "address",
          "name": "operator",
          "type": "address"
        },
        {
          "indexed": false,
          "internalType": "bool",
          "name": "approved",
          "type": "bool"
        }
      ],
      "name": "ApprovalForAll",
      "type": "event"
    },
    {
      "anonymous": false,
      "inputs": [
        {
          "indexed": false,
          "internalType": "address",
          "name": "sender",
          "type": "address"
        },
        {
          "indexed": false,
          "internalType": "uint256",
          "name": "tokenId",
          "type": "uint256"
        },
        {
          "indexed": false,
          "internalType": "string",
          "name": "title",
          "type": "string"
        },
        {
          "indexed": false,
          "internalType": "uint256",
          "name": "timestamp",
          "type": "uint256"
        },
        {
          "indexed": false,
          "internalType": "string",
          "name": "tokenPicture",
          "type": "string"
        },
        {
          "indexed": false,
          "internalType": "uint256",
          "name": "tokenPrice",
          "type": "uint256"
        }
      ],
      "name": "TokenCreated",
      "type": "event"
    },
    {
      "anonymous": false,
      "inputs": [
        {
          "indexed": false,
          "internalType": "address",
          "name": "sender",
          "type": "address"
        },
        {
          "indexed": false,
          "internalType": "uint256",
          "name": "tokenId",
          "type": "uint256"
        },
        {
          "indexed": false,
          "internalType": "uint256",
          "name": "newPrice",
          "type": "uint256"
        }
      ],
      "name": "TokenPriceChanged",
      "type": "event"
    },
    {
      "anonymous": false,
      "inputs": [
        {
          "indexed": false,
          "internalType": "address",
          "name": "from",
          "type": "address"
        },
        {
          "indexed": false,
          "internalType": "address",
          "name": "to",
          "type": "address"
        },
        {
          "indexed": false,
          "internalType": "uint256",
          "name": "tokenId",
          "type": "uint256"
        }
      ],
      "name": "TokenSold",
      "type": "event"
    },
    {
      "anonymous": false,
      "inputs": [
        {
          "indexed": true,
          "internalType": "address",
          "name": "from",
          "type": "address"
        },
        {
          "indexed": true,
          "internalType": "address",
          "name": "to",
          "type": "address"
        },
        {
          "indexed": true,
          "internalType": "uint256",
          "name": "tokenId",
          "type": "uint256"
        }
      ],
      "name": "Transfer",
      "type": "event"
    },
    {
      "inputs": [
        {
          "internalType": "address",
          "name": "to",
          "type": "address"
        },
        {
          "internalType": "uint256",
          "name": "tokenId",
          "type": "uint256"
        }
      ],
      "name": "approve",
      "outputs": [],
      "stateMutability": "nonpayable",
      "type": "function"
    },
    {
      "inputs": [
        {
          "internalType": "address",
          "name": "owner",
          "type": "address"
        }
      ],
      "name": "balanceOf",
      "outputs": [
        {
          "internalType": "uint256",
          "name": "",
          "type": "uint256"
        }
      ],
      "stateMutability": "view",
      "type": "function",
      "constant": true
    },
    {
      "inputs": [
        {
          "internalType": "uint256",
          "name": "tokenId",
          "type": "uint256"
        }
      ],
      "name": "getApproved",
      "outputs": [
        {
          "internalType": "address",
          "name": "",
          "type": "address"
        }
      ],
      "stateMutability": "view",
      "type": "function",
      "constant": true
    },
    {
      "inputs": [
        {
          "internalType": "address",
          "name": "owner",
          "type": "address"
        },
        {
          "internalType": "address",
          "name": "operator",
          "type": "address"
        }
      ],
      "name": "isApprovedForAll",
      "outputs": [
        {
          "internalType": "bool",
          "name": "",
          "type": "bool"
        }
      ],
      "stateMutability": "view",
      "type": "function",
      "constant": true
    },
    {
      "inputs": [],
      "name": "name",
      "outputs": [
        {
          "internalType": "string",
          "name": "",
          "type": "string"
        }
      ],
      "stateMutability": "view",
      "type": "function",
      "constant": true
    },
    {
      "inputs": [
        {
          "internalType": "uint256",
          "name": "tokenId",
          "type": "uint256"
        }
      ],
      "name": "ownerOf",
      "outputs": [
        {
          "internalType": "address",
          "name": "",
          "type": "address"
        }
      ],
      "stateMutability": "view",
      "type": "function",
      "constant": true
    },
    {
      "inputs": [
        {
          "internalType": "address",
          "name": "from",
          "type": "address"
        },
        {
          "internalType": "address",
          "name": "to",
          "type": "address"
        },
        {
          "internalType": "uint256",
          "name": "tokenId",
          "type": "uint256"
        }
      ],
      "name": "safeTransferFrom",
      "outputs": [],
      "stateMutability": "nonpayable",
      "type": "function"
    },
    {
      "inputs": [
        {
          "internalType": "address",
          "name": "from",
          "type": "address"
        },
        {
          "internalType": "address",
          "name": "to",
          "type": "address"
        },
        {
          "internalType": "uint256",
          "name": "tokenId",
          "type": "uint256"
        },
        {
          "internalType": "bytes",
          "name": "data",
          "type": "bytes"
        }
      ],
      "name": "safeTransferFrom",
      "outputs": [],
      "stateMutability": "nonpayable",
      "type": "function"
    },
    {
      "inputs": [
        {
          "internalType": "address",
          "name": "operator",
          "type": "address"
        },
        {
          "internalType": "bool",
          "name": "approved",
          "type": "bool"
        }
      ],
      "name": "setApprovalForAll",
      "outputs": [],
      "stateMutability": "nonpayable",
      "type": "function"
    },
    {
      "inputs": [
        {
          "internalType": "bytes4",
          "name": "interfaceId",
          "type": "bytes4"
        }
      ],
      "name": "supportsInterface",
      "outputs": [
        {
          "internalType": "bool",
          "name": "",
          "type": "bool"
        }
      ],
      "stateMutability": "view",
      "type": "function",
      "constant": true
    },
    {
      "inputs": [],
      "name": "symbol",
      "outputs": [
        {
          "internalType": "string",
          "name": "",
          "type": "string"
        }
      ],
      "stateMutability": "view",
      "type": "function",
      "constant": true
    },
    {
      "inputs": [
        {
          "internalType": "uint256",
          "name": "tokenId",
          "type": "uint256"
        }
      ],
      "name": "tokenURI",
      "outputs": [
        {
          "internalType": "string",
          "name": "",
          "type": "string"
        }
      ],
      "stateMutability": "view",
      "type": "function",
      "constant": true
    },
    {
      "inputs": [
        {
          "internalType": "address",
          "name": "from",
          "type": "address"
        },
        {
          "internalType": "address",
          "name": "to",
          "type": "address"
        },
        {
          "internalType": "uint256",
          "name": "tokenId",
          "type": "uint256"
        }
      ],
      "name": "transferFrom",
      "outputs": [],
      "stateMutability": "nonpayable",
      "type": "function"
    },
    {
      "inputs": [
        {
          "internalType": "string",
          "name": "tokenPicture",
          "type": "string"
        },
        {
          "internalType": "string",
          "name": "tokenTitle",
          "type": "string"
        },
        {
          "internalType": "string",
          "name": "tokenDescription",
          "type": "string"
        },
        {
          "internalType": "uint256",
          "name": "tokenPrice",
          "type": "uint256"
        }
      ],
      "name": "mint",
      "outputs": [],
      "stateMutability": "payable",
      "type": "function",
      "payable": true
    },
    {
      "inputs": [],
      "name": "listNFTs",
      "outputs": [
        {
          "components": [
            {
              "internalType": "address",
              "name": "owner",
              "type": "address"
            },
            {
              "internalType": "uint256",
              "name": "id",
              "type": "uint256"
            },
            {
              "internalType": "string",
              "name": "tokenURL",
              "type": "string"
            },
            {
              "internalType": "string",
              "name": "title",
              "type": "string"
            },
            {
              "internalType": "uint256",
              "name": "price",
              "type": "uint256"
            },
            {
              "internalType": "string",
              "name": "description",
              "type": "string"
            },
            {
              "internalType": "uint256",
              "name": "timestamp",
              "type": "uint256"
            }
          ],
          "internalType": "struct NFTMarketplace.Token[]",
          "name": "",
          "type": "tuple[]"
        }
      ],
      "stateMutability": "view",
      "type": "function",
      "constant": true
    },
    {
      "inputs": [],
      "name": "transactionHistory",
      "outputs": [
        {
          "components": [
            {
              "internalType": "address",
              "name": "owner",
              "type": "address"
            },
            {
              "internalType": "uint256",
              "name": "id",
              "type": "uint256"
            },
            {
              "internalType": "string",
              "name": "tokenURL",
              "type": "string"
            },
            {
              "internalType": "string",
              "name": "title",
              "type": "string"
            },
            {
              "internalType": "uint256",
              "name": "price",
              "type": "uint256"
            },
            {
              "internalType": "string",
              "name": "description",
              "type": "string"
            },
            {
              "internalType": "uint256",
              "name": "timestamp",
              "type": "uint256"
            }
          ],
          "internalType": "struct NFTMarketplace.Token[]",
          "name": "",
          "type": "tuple[]"
        }
      ],
      "stateMutability": "view",
      "type": "function",
      "constant": true
    },
    {
      "inputs": [
        {
          "internalType": "uint256",
          "name": "tokenId",
          "type": "uint256"
        },
        {
          "internalType": "uint256",
          "name": "newPrice",
          "type": "uint256"
        }
      ],
      "name": "changePrice",
      "outputs": [],
      "stateMutability": "nonpayable",
      "type": "function"
    },
    {
      "inputs": [
        {
          "internalType": "uint256",
          "name": "tokenId",
          "type": "uint256"
        }
      ],
      "name": "buy",
      "outputs": [],
      "stateMutability": "payable",
      "type": "function",
      "payable": true
    }
  ],
  "bytecode": "0x60806040526127106008553480156200001757600080fd5b506040516200490c3803806200490c83398181016040528101906200003d9190620002af565b8282816000908162000050919062000594565b50806001908162000062919062000594565b505050600160068190555080600c60006101000a81548173ffffffffffffffffffffffffffffffffffffffff021916908373ffffffffffffffffffffffffffffffffffffffff1602179055505050506200067b565b6000604051905090565b600080fd5b600080fd5b600080fd5b600080fd5b6000601f19601f8301169050919050565b7f4e487b7100000000000000000000000000000000000000000000000000000000600052604160045260246000fd5b6200012082620000d5565b810181811067ffffffffffffffff82111715620001425762000141620000e6565b5b80604052505050565b600062000157620000b7565b905062000165828262000115565b919050565b600067ffffffffffffffff821115620001885762000187620000e6565b5b6200019382620000d5565b9050602081019050919050565b60005b83811015620001c0578082015181840152602081019050620001a3565b60008484015250505050565b6000620001e3620001dd846200016a565b6200014b565b905082815260208101848484011115620002025762000201620000d0565b5b6200020f848285620001a0565b509392505050565b600082601f8301126200022f576200022e620000cb565b5b815162000241848260208601620001cc565b91505092915050565b600073ffffffffffffffffffffffffffffffffffffffff82169050919050565b600062000277826200024a565b9050919050565b62000289816200026a565b81146200029557600080fd5b50565b600081519050620002a9816200027e565b92915050565b600080600060608486031215620002cb57620002ca620000c1565b5b600084015167ffffffffffffffff811115620002ec57620002eb620000c6565b5b620002fa8682870162000217565b935050602084015167ffffffffffffffff8111156200031e576200031d620000c6565b5b6200032c8682870162000217565b92505060406200033f8682870162000298565b9150509250925092565b600081519050919050565b7f4e487b7100000000000000000000000000000000000000000000000000000000600052602260045260246000fd5b600060028204905060018216806200039c57607f821691505b602082108103620003b257620003b162000354565b5b50919050565b60008190508160005260206000209050919050565b60006020601f8301049050919050565b600082821b905092915050565b6000600883026200041c7fffffffffffffffffffffffffffffffffffffffffffffffffffffffffffffffff82620003dd565b620004288683620003dd565b95508019841693508086168417925050509392505050565b6000819050919050565b6000819050919050565b6000620004756200046f620004698462000440565b6200044a565b62000440565b9050919050565b6000819050919050565b620004918362000454565b620004a9620004a0826200047c565b848454620003ea565b825550505050565b600090565b620004c0620004b1565b620004cd81848462000486565b505050565b5b81811015620004f557620004e9600082620004b6565b600181019050620004d3565b5050565b601f82111562000544576200050e81620003b8565b6200051984620003cd565b8101602085101562000529578190505b620005416200053885620003cd565b830182620004d2565b50505b505050565b600082821c905092915050565b6000620005696000198460080262000549565b1980831691505092915050565b600062000584838362000556565b9150826002028217905092915050565b6200059f8262000349565b67ffffffffffffffff811115620005bb57620005ba620000e6565b5b620005c7825462000383565b620005d4828285620004f9565b600060209050601f8311600181146200060c5760008415620005f7578287015190505b62000603858262000576565b86555062000673565b601f1984166200061c86620003b8565b60005b8281101562000646578489015182556001820191506020850194506020810190506200061f565b8683101562000666578489015162000662601f89168262000556565b8355505b6001600288020188555050505b505050505050565b614281806200068b6000396000f3fe6080604052600436106101095760003560e01c80636352211e11610095578063b3de019c11610064578063b3de019c1461036e578063b88d4fde14610397578063c87b56dd146103c0578063d96a094a146103fd578063e985e9c51461041957610109565b80636352211e146102a057806370a08231146102dd57806395d89b411461031a578063a22cb4651461034557610109565b806323b872dd116100dc57806323b872dd146101dc578063254d40e914610205578063309506c61461023057806331b6475c1461025b57806342842e0e1461027757610109565b806301ffc9a71461010e57806306fdde031461014b578063081812fc14610176578063095ea7b3146101b3575b600080fd5b34801561011a57600080fd5b50610135600480360381019061013091906129e5565b610456565b6040516101429190612a2d565b60405180910390f35b34801561015757600080fd5b50610160610538565b60405161016d9190612ad8565b60405180910390f35b34801561018257600080fd5b5061019d60048036038101906101989190612b30565b6105ca565b6040516101aa9190612b9e565b60405180910390f35b3480156101bf57600080fd5b506101da60048036038101906101d59190612be5565b610610565b005b3480156101e857600080fd5b5061020360048036038101906101fe9190612c25565b610727565b005b34801561021157600080fd5b5061021a610787565b6040516102279190612e4c565b60405180910390f35b34801561023c57600080fd5b50610245610a10565b6040516102529190612e4c565b60405180910390f35b61027560048036038101906102709190612fa3565b610d1e565b005b34801561028357600080fd5b5061029e60048036038101906102999190612c25565b610f4e565b005b3480156102ac57600080fd5b506102c760048036038101906102c29190612b30565b610f6e565b6040516102d49190612b9e565b60405180910390f35b3480156102e957600080fd5b5061030460048036038101906102ff919061305e565b610ff4565b604051610311919061309a565b60405180910390f35b34801561032657600080fd5b5061032f6110ab565b60405161033c9190612ad8565b60405180910390f35b34801561035157600080fd5b5061036c600480360381019061036791906130e1565b61113d565b005b34801561037a57600080fd5b5061039560048036038101906103909190613121565b611153565b005b3480156103a357600080fd5b506103be60048036038101906103b99190613202565b611294565b005b3480156103cc57600080fd5b506103e760048036038101906103e29190612b30565b6112f6565b6040516103f49190612ad8565b60405180910390f35b61041760048036038101906104129190612b30565b61135e565b005b34801561042557600080fd5b50610440600480360381019061043b9190613285565b61189c565b60405161044d9190612a2d565b60405180910390f35b60007f80ac58cd000000000000000000000000000000000000000000000000000000007bffffffffffffffffffffffffffffffffffffffffffffffffffffffff1916827bffffffffffffffffffffffffffffffffffffffffffffffffffffffff1916148061052157507f5b5e139f000000000000000000000000000000000000000000000000000000007bffffffffffffffffffffffffffffffffffffffffffffffffffffffff1916827bffffffffffffffffffffffffffffffffffffffffffffffffffffffff1916145b80610531575061053082611930565b5b9050919050565b606060008054610547906132f4565b80601f0160208091040260200160405190810160405280929190818152602001828054610573906132f4565b80156105c05780601f10610595576101008083540402835291602001916105c0565b820191906000526020600020905b8154815290600101906020018083116105a357829003601f168201915b5050505050905090565b60006105d58261199a565b6004600083815260200190815260200160002060009054906101000a900473ffffffffffffffffffffffffffffffffffffffff169050919050565b600061061b82610f6e565b90508073ffffffffffffffffffffffffffffffffffffffff168373ffffffffffffffffffffffffffffffffffffffff160361068b576040517f08c379a000000000000000000000000000000000000000000000000000000000815260040161068290613397565b60405180910390fd5b8073ffffffffffffffffffffffffffffffffffffffff166106aa6119e5565b73ffffffffffffffffffffffffffffffffffffffff1614806106d957506106d8816106d36119e5565b61189c565b5b610718576040517f08c379a000000000000000000000000000000000000000000000000000000000815260040161070f90613429565b60405180910390fd5b61072283836119ed565b505050565b6107386107326119e5565b82611aa6565b610777576040517f08c379a000000000000000000000000000000000000000000000000000000000815260040161076e906134bb565b60405180910390fd5b610782838383611b3b565b505050565b60606009805480602002602001604051908101604052809291908181526020016000905b82821015610a0757838290600052602060002090600702016040518060e00160405290816000820160009054906101000a900473ffffffffffffffffffffffffffffffffffffffff1673ffffffffffffffffffffffffffffffffffffffff1673ffffffffffffffffffffffffffffffffffffffff1681526020016001820154815260200160028201805461083e906132f4565b80601f016020809104026020016040519081016040528092919081815260200182805461086a906132f4565b80156108b75780601f1061088c576101008083540402835291602001916108b7565b820191906000526020600020905b81548152906001019060200180831161089a57829003601f168201915b505050505081526020016003820180546108d0906132f4565b80601f01602080910402602001604051908101604052809291908181526020018280546108fc906132f4565b80156109495780601f1061091e57610100808354040283529160200191610949565b820191906000526020600020905b81548152906001019060200180831161092c57829003601f168201915b505050505081526020016004820154815260200160058201805461096c906132f4565b80601f0160208091040260200160405190810160405280929190818152602001828054610998906132f4565b80156109e55780601f106109ba576101008083540402835291602001916109e5565b820191906000526020600020905b8154815290600101906020018083116109c857829003601f168201915b50505050508152602001600682015481525050815260200190600101906107ab565b50505050905090565b60606000600b8054905067ffffffffffffffff811115610a3357610a32612e78565b5b604051908082528060200260200182016040528015610a6c57816020015b610a59612926565b815260200190600190039081610a515790505b50905060005b600b80549050811015610d1657600a6000600b8381548110610a9757610a966134db565b5b906000526020600020015481526020019081526020016000206040518060e00160405290816000820160009054906101000a900473ffffffffffffffffffffffffffffffffffffffff1673ffffffffffffffffffffffffffffffffffffffff1673ffffffffffffffffffffffffffffffffffffffff16815260200160018201548152602001600282018054610b2b906132f4565b80601f0160208091040260200160405190810160405280929190818152602001828054610b57906132f4565b8015610ba45780601f10610b7957610100808354040283529160200191610ba4565b820191906000526020600020905b815481529060010190602001808311610b8757829003601f168201915b50505050508152602001600382018054610bbd906132f4565b80601f0160208091040260200160405190810160405280929190818152602001828054610be9906132f4565b8015610c365780601f10610c0b57610100808354040283529160200191610c36565b820191906000526020600020905b815481529060010190602001808311610c1957829003601f168201915b5050505050815260200160048201548152602001600582018054610c59906132f4565b80601f0160208091040260200160405190810160405280929190818152602001828054610c85906132f4565b8015610cd25780601f10610ca757610100808354040283529160200191610cd2565b820191906000526020600020905b815481529060010190602001808311610cb557829003601f168201915b50505050508152602001600682015481525050828281518110610cf857610cf76134db565b5b60200260200101819052508080610d0e90613539565b915050610a72565b508091505090565b600854610d2b6007611e34565b1115610d6c576040517f08c379a0000000000000000000000000000000000000000000000000000000008152600401610d63906135cd565b60405180910390fd5b600d84604051610d7c9190613629565b908152602001604051809103902060009054906101000a900460ff1615610dd8576040517f08c379a0000000000000000000000000000000000000000000000000000000008152600401610dcf906136b2565b60405180910390fd5b610de26007611e42565b6000610dee6007611e34565b9050610dfa3382611e58565b6000600a60008381526020019081526020016000209050338160000160006101000a81548173ffffffffffffffffffffffffffffffffffffffff021916908373ffffffffffffffffffffffffffffffffffffffff16021790555081816001018190555085816002019081610e6e919061387e565b5084816003019081610e80919061387e565b5082816004018190555083816005019081610e9b919061387e565b50428160060181905550600b8290806001815401808255809150506001900390600052602060002001600090919091909150557fac26ffc544bee239861e85acff0ceeec9559de6e85a232d4ddf3a7a9ad45bf11338387428a88604051610f0796959493929190613950565b60405180910390a16001600d87604051610f219190613629565b908152602001604051809103902060006101000a81548160ff021916908315150217905550505050505050565b610f6983838360405180602001604052806000815250611294565b505050565b600080610f7a83611e76565b9050600073ffffffffffffffffffffffffffffffffffffffff168173ffffffffffffffffffffffffffffffffffffffff1603610feb576040517f08c379a0000000000000000000000000000000000000000000000000000000008152600401610fe290613a0b565b60405180910390fd5b80915050919050565b60008073ffffffffffffffffffffffffffffffffffffffff168273ffffffffffffffffffffffffffffffffffffffff1603611064576040517f08c379a000000000000000000000000000000000000000000000000000000000815260040161105b90613a9d565b60405180910390fd5b600360008373ffffffffffffffffffffffffffffffffffffffff1673ffffffffffffffffffffffffffffffffffffffff168152602001908152602001600020549050919050565b6060600180546110ba906132f4565b80601f01602080910402602001604051908101604052809291908181526020018280546110e6906132f4565b80156111335780601f1061110857610100808354040283529160200191611133565b820191906000526020600020905b81548152906001019060200180831161111657829003601f168201915b5050505050905090565b61114f6111486119e5565b8383611eb3565b5050565b3373ffffffffffffffffffffffffffffffffffffffff16600a600084815260200190815260200160002060000160009054906101000a900473ffffffffffffffffffffffffffffffffffffffff1673ffffffffffffffffffffffffffffffffffffffff16146111f7576040517f08c379a00000000000000000000000000000000000000000000000000000000081526004016111ee90613b2f565b60405180910390fd5b6000811161123a576040517f08c379a000000000000000000000000000000000000000000000000000000000815260040161123190613b9b565b60405180910390fd5b80600a6000848152602001908152602001600020600401819055507f73dd84a04ccce6980e8996a09339cde4353e22fa20400d4e32326412a3667a4933838360405161128893929190613bbb565b60405180910390a15050565b6112a561129f6119e5565b83611aa6565b6112e4576040517f08c379a00000000000000000000000000000000000000000000000000000000081526004016112db906134bb565b60405180910390fd5b6112f08484848461201f565b50505050565b60606113018261199a565b600061130b61207b565b9050600081511161132b5760405180602001604052806000815250611356565b8061133584612092565b604051602001611346929190613bf2565b6040516020818303038152906040525b915050919050565b3373ffffffffffffffffffffffffffffffffffffffff16600a600083815260200190815260200160002060000160009054906101000a900473ffffffffffffffffffffffffffffffffffffffff1673ffffffffffffffffffffffffffffffffffffffff1603611402576040517f08c379a00000000000000000000000000000000000000000000000000000000081526004016113f990613c62565b60405180910390fd5b600a60008281526020019081526020016000206004015434101561145b576040517f08c379a000000000000000000000000000000000000000000000000000000000815260040161145290613cce565b60405180910390fd5b61149b600a600083815260200190815260200160002060000160009054906101000a900473ffffffffffffffffffffffffffffffffffffffff1634612160565b60096040518060e001604052803373ffffffffffffffffffffffffffffffffffffffff168152602001838152602001600a600085815260200190815260200160002060020180546114eb906132f4565b80601f0160208091040260200160405190810160405280929190818152602001828054611517906132f4565b80156115645780601f1061153957610100808354040283529160200191611564565b820191906000526020600020905b81548152906001019060200180831161154757829003601f168201915b50505050508152602001600a6000858152602001908152602001600020600301805461158f906132f4565b80601f01602080910402602001604051908101604052809291908181526020018280546115bb906132f4565b80156116085780601f106115dd57610100808354040283529160200191611608565b820191906000526020600020905b8154815290600101906020018083116115eb57829003601f168201915b50505050508152602001348152602001600a60008581526020019081526020016000206005018054611639906132f4565b80601f0160208091040260200160405190810160405280929190818152602001828054611665906132f4565b80156116b25780601f10611687576101008083540402835291602001916116b2565b820191906000526020600020905b81548152906001019060200180831161169557829003601f168201915b5050505050815260200142815250908060018154018082558091505060019003906000526020600020906007020160009091909190915060008201518160000160006101000a81548173ffffffffffffffffffffffffffffffffffffffff021916908373ffffffffffffffffffffffffffffffffffffffff16021790555060208201518160010155604082015181600201908161174f919061387e565b506060820151816003019081611765919061387e565b506080820151816004015560a0820151816005019081611785919061387e565b5060c0820151816006015550506117d3600a600083815260200190815260200160002060000160009054906101000a900473ffffffffffffffffffffffffffffffffffffffff163383611b3b565b7fd4cffd6979677853b45a7a17f455188a434e975ba474c5a2613c94beacea537a600a600083815260200190815260200160002060000160009054906101000a900473ffffffffffffffffffffffffffffffffffffffff16338360405161183c93929190613cee565b60405180910390a133600a600083815260200190815260200160002060000160006101000a81548173ffffffffffffffffffffffffffffffffffffffff021916908373ffffffffffffffffffffffffffffffffffffffff16021790555050565b6000600560008473ffffffffffffffffffffffffffffffffffffffff1673ffffffffffffffffffffffffffffffffffffffff16815260200190815260200160002060008373ffffffffffffffffffffffffffffffffffffffff1673ffffffffffffffffffffffffffffffffffffffff16815260200190815260200160002060009054906101000a900460ff16905092915050565b60007f01ffc9a7000000000000000000000000000000000000000000000000000000007bffffffffffffffffffffffffffffffffffffffffffffffffffffffff1916827bffffffffffffffffffffffffffffffffffffffffffffffffffffffff1916149050919050565b6119a3816121eb565b6119e2576040517f08c379a00000000000000000000000000000000000000000000000000000000081526004016119d990613a0b565b60405180910390fd5b50565b600033905090565b816004600083815260200190815260200160002060006101000a81548173ffffffffffffffffffffffffffffffffffffffff021916908373ffffffffffffffffffffffffffffffffffffffff160217905550808273ffffffffffffffffffffffffffffffffffffffff16611a6083610f6e565b73ffffffffffffffffffffffffffffffffffffffff167f8c5be1e5ebec7d5bd14f71427d1e84f3dd0314c0f7b2291e5b200ac8c7c3b92560405160405180910390a45050565b600080611ab283610f6e565b90508073ffffffffffffffffffffffffffffffffffffffff168473ffffffffffffffffffffffffffffffffffffffff161480611af45750611af3818561189c565b5b80611b3257508373ffffffffffffffffffffffffffffffffffffffff16611b1a846105ca565b73ffffffffffffffffffffffffffffffffffffffff16145b91505092915050565b8273ffffffffffffffffffffffffffffffffffffffff16611b5b82610f6e565b73ffffffffffffffffffffffffffffffffffffffff1614611bb1576040517f08c379a0000000000000000000000000000000000000000000000000000000008152600401611ba890613d97565b60405180910390fd5b600073ffffffffffffffffffffffffffffffffffffffff168273ffffffffffffffffffffffffffffffffffffffff1603611c20576040517f08c379a0000000000000000000000000000000000000000000000000000000008152600401611c1790613e29565b60405180910390fd5b611c2d838383600161222c565b8273ffffffffffffffffffffffffffffffffffffffff16611c4d82610f6e565b73ffffffffffffffffffffffffffffffffffffffff1614611ca3576040517f08c379a0000000000000000000000000000000000000000000000000000000008152600401611c9a90613d97565b60405180910390fd5b6004600082815260200190815260200160002060006101000a81549073ffffffffffffffffffffffffffffffffffffffff02191690556001600360008573ffffffffffffffffffffffffffffffffffffffff1673ffffffffffffffffffffffffffffffffffffffff168152602001908152602001600020600082825403925050819055506001600360008473ffffffffffffffffffffffffffffffffffffffff1673ffffffffffffffffffffffffffffffffffffffff16815260200190815260200160002060008282540192505081905550816002600083815260200190815260200160002060006101000a81548173ffffffffffffffffffffffffffffffffffffffff021916908373ffffffffffffffffffffffffffffffffffffffff160217905550808273ffffffffffffffffffffffffffffffffffffffff168473ffffffffffffffffffffffffffffffffffffffff167fddf252ad1be2c89b69c2b068fc378daa952ba7f163c4a11628f55a4df523b3ef60405160405180910390a4611e2f8383836001612352565b505050565b600081600001549050919050565b6001816000016000828254019250508190555050565b611e72828260405180602001604052806000815250612358565b5050565b60006002600083815260200190815260200160002060009054906101000a900473ffffffffffffffffffffffffffffffffffffffff169050919050565b8173ffffffffffffffffffffffffffffffffffffffff168373ffffffffffffffffffffffffffffffffffffffff1603611f21576040517f08c379a0000000000000000000000000000000000000000000000000000000008152600401611f1890613e95565b60405180910390fd5b80600560008573ffffffffffffffffffffffffffffffffffffffff1673ffffffffffffffffffffffffffffffffffffffff16815260200190815260200160002060008473ffffffffffffffffffffffffffffffffffffffff1673ffffffffffffffffffffffffffffffffffffffff16815260200190815260200160002060006101000a81548160ff0219169083151502179055508173ffffffffffffffffffffffffffffffffffffffff168373ffffffffffffffffffffffffffffffffffffffff167f17307eab39ab6107e8899845ad3d59bd9653f200f220920489ca2b5937696c31836040516120129190612a2d565b60405180910390a3505050565b61202a848484611b3b565b612036848484846123b3565b612075576040517f08c379a000000000000000000000000000000000000000000000000000000000815260040161206c90613f27565b60405180910390fd5b50505050565b606060405180602001604052806000815250905090565b6060600060016120a18461253a565b01905060008167ffffffffffffffff8111156120c0576120bf612e78565b5b6040519080825280601f01601f1916602001820160405280156120f25781602001600182028036833780820191505090505b509050600082602001820190505b600115612155578080600190039150507f3031323334353637383961626364656600000000000000000000000000000000600a86061a8153600a858161214957612148613f47565b5b04945060008503612100575b819350505050919050565b61216861268d565b60008273ffffffffffffffffffffffffffffffffffffffff168260405161218e90613fa7565b60006040518083038185875af1925050503d80600081146121cb576040519150601f19603f3d011682016040523d82523d6000602084013e6121d0565b606091505b50509050806121de57600080fd5b506121e76126dc565b5050565b60008073ffffffffffffffffffffffffffffffffffffffff1661220d83611e76565b73ffffffffffffffffffffffffffffffffffffffff1614159050919050565b600181111561234c57600073ffffffffffffffffffffffffffffffffffffffff168473ffffffffffffffffffffffffffffffffffffffff16146122c05780600360008673ffffffffffffffffffffffffffffffffffffffff1673ffffffffffffffffffffffffffffffffffffffff16815260200190815260200160002060008282546122b89190613fbc565b925050819055505b600073ffffffffffffffffffffffffffffffffffffffff168373ffffffffffffffffffffffffffffffffffffffff161461234b5780600360008573ffffffffffffffffffffffffffffffffffffffff1673ffffffffffffffffffffffffffffffffffffffff16815260200190815260200160002060008282546123439190613ff0565b925050819055505b5b50505050565b50505050565b61236283836126e6565b61236f60008484846123b3565b6123ae576040517f08c379a00000000000000000000000000000000000000000000000000000000081526004016123a590613f27565b60405180910390fd5b505050565b60006123d48473ffffffffffffffffffffffffffffffffffffffff16612903565b1561252d578373ffffffffffffffffffffffffffffffffffffffff1663150b7a026123fd6119e5565b8786866040518563ffffffff1660e01b815260040161241f9493929190614079565b6020604051808303816000875af192505050801561245b57506040513d601f19601f8201168201806040525081019061245891906140da565b60015b6124dd573d806000811461248b576040519150601f19603f3d011682016040523d82523d6000602084013e612490565b606091505b5060008151036124d5576040517f08c379a00000000000000000000000000000000000000000000000000000000081526004016124cc90613f27565b60405180910390fd5b805181602001fd5b63150b7a0260e01b7bffffffffffffffffffffffffffffffffffffffffffffffffffffffff1916817bffffffffffffffffffffffffffffffffffffffffffffffffffffffff191614915050612532565b600190505b949350505050565b600080600090507a184f03e93ff9f4daa797ed6e38ed64bf6a1f0100000000000000008310612598577a184f03e93ff9f4daa797ed6e38ed64bf6a1f010000000000000000838161258e5761258d613f47565b5b0492506040810190505b6d04ee2d6d415b85acef810000000083106125d5576d04ee2d6d415b85acef810000000083816125cb576125ca613f47565b5b0492506020810190505b662386f26fc10000831061260457662386f26fc1000083816125fa576125f9613f47565b5b0492506010810190505b6305f5e100831061262d576305f5e100838161262357612622613f47565b5b0492506008810190505b612710831061265257612710838161264857612647613f47565b5b0492506004810190505b60648310612675576064838161266b5761266a613f47565b5b0492506002810190505b600a8310612684576001810190505b80915050919050565b6002600654036126d2576040517f08c379a00000000000000000000000000000000000000000000000000000000081526004016126c990614153565b60405180910390fd5b6002600681905550565b6001600681905550565b600073ffffffffffffffffffffffffffffffffffffffff168273ffffffffffffffffffffffffffffffffffffffff1603612755576040517f08c379a000000000000000000000000000000000000000000000000000000000815260040161274c906141bf565b60405180910390fd5b61275e816121eb565b1561279e576040517f08c379a00000000000000000000000000000000000000000000000000000000081526004016127959061422b565b60405180910390fd5b6127ac60008383600161222c565b6127b5816121eb565b156127f5576040517f08c379a00000000000000000000000000000000000000000000000000000000081526004016127ec9061422b565b60405180910390fd5b6001600360008473ffffffffffffffffffffffffffffffffffffffff1673ffffffffffffffffffffffffffffffffffffffff16815260200190815260200160002060008282540192505081905550816002600083815260200190815260200160002060006101000a81548173ffffffffffffffffffffffffffffffffffffffff021916908373ffffffffffffffffffffffffffffffffffffffff160217905550808273ffffffffffffffffffffffffffffffffffffffff16600073ffffffffffffffffffffffffffffffffffffffff167fddf252ad1be2c89b69c2b068fc378daa952ba7f163c4a11628f55a4df523b3ef60405160405180910390a46128ff600083836001612352565b5050565b6000808273ffffffffffffffffffffffffffffffffffffffff163b119050919050565b6040518060e00160405280600073ffffffffffffffffffffffffffffffffffffffff1681526020016000815260200160608152602001606081526020016000815260200160608152602001600081525090565b6000604051905090565b600080fd5b600080fd5b60007fffffffff0000000000000000000000000000000000000000000000000000000082169050919050565b6129c28161298d565b81146129cd57600080fd5b50565b6000813590506129df816129b9565b92915050565b6000602082840312156129fb576129fa612983565b5b6000612a09848285016129d0565b91505092915050565b60008115159050919050565b612a2781612a12565b82525050565b6000602082019050612a426000830184612a1e565b92915050565b600081519050919050565b600082825260208201905092915050565b60005b83811015612a82578082015181840152602081019050612a67565b60008484015250505050565b6000601f19601f8301169050919050565b6000612aaa82612a48565b612ab48185612a53565b9350612ac4818560208601612a64565b612acd81612a8e565b840191505092915050565b60006020820190508181036000830152612af28184612a9f565b905092915050565b6000819050919050565b612b0d81612afa565b8114612b1857600080fd5b50565b600081359050612b2a81612b04565b92915050565b600060208284031215612b4657612b45612983565b5b6000612b5484828501612b1b565b91505092915050565b600073ffffffffffffffffffffffffffffffffffffffff82169050919050565b6000612b8882612b5d565b9050919050565b612b9881612b7d565b82525050565b6000602082019050612bb36000830184612b8f565b92915050565b612bc281612b7d565b8114612bcd57600080fd5b50565b600081359050612bdf81612bb9565b92915050565b60008060408385031215612bfc57612bfb612983565b5b6000612c0a85828601612bd0565b9250506020612c1b85828601612b1b565b9150509250929050565b600080600060608486031215612c3e57612c3d612983565b5b6000612c4c86828701612bd0565b9350506020612c5d86828701612bd0565b9250506040612c6e86828701612b1b565b9150509250925092565b600081519050919050565b600082825260208201905092915050565b6000819050602082019050919050565b612cad81612b7d565b82525050565b612cbc81612afa565b82525050565b600082825260208201905092915050565b6000612cde82612a48565b612ce88185612cc2565b9350612cf8818560208601612a64565b612d0181612a8e565b840191505092915050565b600060e083016000830151612d246000860182612ca4565b506020830151612d376020860182612cb3565b5060408301518482036040860152612d4f8282612cd3565b91505060608301518482036060860152612d698282612cd3565b9150506080830151612d7e6080860182612cb3565b5060a083015184820360a0860152612d968282612cd3565b91505060c0830151612dab60c0860182612cb3565b508091505092915050565b6000612dc28383612d0c565b905092915050565b6000602082019050919050565b6000612de282612c78565b612dec8185612c83565b935083602082028501612dfe85612c94565b8060005b85811015612e3a5784840389528151612e1b8582612db6565b9450612e2683612dca565b925060208a01995050600181019050612e02565b50829750879550505050505092915050565b60006020820190508181036000830152612e668184612dd7565b905092915050565b600080fd5b600080fd5b7f4e487b7100000000000000000000000000000000000000000000000000000000600052604160045260246000fd5b612eb082612a8e565b810181811067ffffffffffffffff82111715612ecf57612ece612e78565b5b80604052505050565b6000612ee2612979565b9050612eee8282612ea7565b919050565b600067ffffffffffffffff821115612f0e57612f0d612e78565b5b612f1782612a8e565b9050602081019050919050565b82818337600083830152505050565b6000612f46612f4184612ef3565b612ed8565b905082815260208101848484011115612f6257612f61612e73565b5b612f6d848285612f24565b509392505050565b600082601f830112612f8a57612f89612e6e565b5b8135612f9a848260208601612f33565b91505092915050565b60008060008060808587031215612fbd57612fbc612983565b5b600085013567ffffffffffffffff811115612fdb57612fda612988565b5b612fe787828801612f75565b945050602085013567ffffffffffffffff81111561300857613007612988565b5b61301487828801612f75565b935050604085013567ffffffffffffffff81111561303557613034612988565b5b61304187828801612f75565b925050606061305287828801612b1b565b91505092959194509250565b60006020828403121561307457613073612983565b5b600061308284828501612bd0565b91505092915050565b61309481612afa565b82525050565b60006020820190506130af600083018461308b565b92915050565b6130be81612a12565b81146130c957600080fd5b50565b6000813590506130db816130b5565b92915050565b600080604083850312156130f8576130f7612983565b5b600061310685828601612bd0565b9250506020613117858286016130cc565b9150509250929050565b6000806040838503121561313857613137612983565b5b600061314685828601612b1b565b925050602061315785828601612b1b565b9150509250929050565b600067ffffffffffffffff82111561317c5761317b612e78565b5b61318582612a8e565b9050602081019050919050565b60006131a56131a084613161565b612ed8565b9050828152602081018484840111156131c1576131c0612e73565b5b6131cc848285612f24565b509392505050565b600082601f8301126131e9576131e8612e6e565b5b81356131f9848260208601613192565b91505092915050565b6000806000806080858703121561321c5761321b612983565b5b600061322a87828801612bd0565b945050602061323b87828801612bd0565b935050604061324c87828801612b1b565b925050606085013567ffffffffffffffff81111561326d5761326c612988565b5b613279878288016131d4565b91505092959194509250565b6000806040838503121561329c5761329b612983565b5b60006132aa85828601612bd0565b92505060206132bb85828601612bd0565b9150509250929050565b7f4e487b7100000000000000000000000000000000000000000000000000000000600052602260045260246000fd5b6000600282049050600182168061330c57607f821691505b60208210810361331f5761331e6132c5565b5b50919050565b7f4552433732313a20617070726f76616c20746f2063757272656e74206f776e6560008201527f7200000000000000000000000000000000000000000000000000000000000000602082015250565b6000613381602183612a53565b915061338c82613325565b604082019050919050565b600060208201905081810360008301526133b081613374565b9050919050565b7f4552433732313a20617070726f76652063616c6c6572206973206e6f7420746f60008201527f6b656e206f776e6572206f7220617070726f76656420666f7220616c6c000000602082015250565b6000613413603d83612a53565b915061341e826133b7565b604082019050919050565b6000602082019050818103600083015261344281613406565b9050919050565b7f4552433732313a2063616c6c6572206973206e6f7420746f6b656e206f776e6560008201527f72206f7220617070726f76656400000000000000000000000000000000000000602082015250565b60006134a5602d83612a53565b91506134b082613449565b604082019050919050565b600060208201905081810360008301526134d481613498565b9050919050565b7f4e487b7100000000000000000000000000000000000000000000000000000000600052603260045260246000fd5b7f4e487b7100000000000000000000000000000000000000000000000000000000600052601160045260246000fd5b600061354482612afa565b91507fffffffffffffffffffffffffffffffffffffffffffffffffffffffffffffffff82036135765761357561350a565b5b600182019050919050565b7f4d6178696d756d20746f6b656e20737570706c79207265616368656400000000600082015250565b60006135b7601c83612a53565b91506135c282613581565b602082019050919050565b600060208201905081810360008301526135e6816135aa565b9050919050565b600081905092915050565b600061360382612a48565b61360d81856135ed565b935061361d818560208601612a64565b80840191505092915050565b600061363582846135f8565b915081905092915050565b7f546f6b656e20776974682074686973207069637475726520616c72656164792060008201527f6578697374732e00000000000000000000000000000000000000000000000000602082015250565b600061369c602783612a53565b91506136a782613640565b604082019050919050565b600060208201905081810360008301526136cb8161368f565b9050919050565b60008190508160005260206000209050919050565b60006020601f8301049050919050565b600082821b905092915050565b6000600883026137347fffffffffffffffffffffffffffffffffffffffffffffffffffffffffffffffff826136f7565b61373e86836136f7565b95508019841693508086168417925050509392505050565b6000819050919050565b600061377b61377661377184612afa565b613756565b612afa565b9050919050565b6000819050919050565b61379583613760565b6137a96137a182613782565b848454613704565b825550505050565b600090565b6137be6137b1565b6137c981848461378c565b505050565b5b818110156137ed576137e26000826137b6565b6001810190506137cf565b5050565b601f82111561383257613803816136d2565b61380c846136e7565b8101602085101561381b578190505b61382f613827856136e7565b8301826137ce565b50505b505050565b600082821c905092915050565b600061385560001984600802613837565b1980831691505092915050565b600061386e8383613844565b9150826002028217905092915050565b61388782612a48565b67ffffffffffffffff8111156138a05761389f612e78565b5b6138aa82546132f4565b6138b58282856137f1565b600060209050601f8311600181146138e857600084156138d6578287015190505b6138e08582613862565b865550613948565b601f1984166138f6866136d2565b60005b8281101561391e578489015182556001820191506020850194506020810190506138f9565b8683101561393b5784890151613937601f891682613844565b8355505b6001600288020188555050505b505050505050565b600060c0820190506139656000830189612b8f565b613972602083018861308b565b81810360408301526139848187612a9f565b9050613993606083018661308b565b81810360808301526139a58185612a9f565b90506139b460a083018461308b565b979650505050505050565b7f4552433732313a20696e76616c696420746f6b656e2049440000000000000000600082015250565b60006139f5601883612a53565b9150613a00826139bf565b602082019050919050565b60006020820190508181036000830152613a24816139e8565b9050919050565b7f4552433732313a2061646472657373207a65726f206973206e6f74206120766160008201527f6c6964206f776e65720000000000000000000000000000000000000000000000602082015250565b6000613a87602983612a53565b9150613a9282613a2b565b604082019050919050565b60006020820190508181036000830152613ab681613a7a565b9050919050565b7f596f7520617265206e6f7420746865206f776e6572206f66207468697320746f60008201527f6b656e2e00000000000000000000000000000000000000000000000000000000602082015250565b6000613b19602483612a53565b9150613b2482613abd565b604082019050919050565b60006020820190508181036000830152613b4881613b0c565b9050919050565b7f5072696365206d7573742062652067726561746572207468616e20302e000000600082015250565b6000613b85601d83612a53565b9150613b9082613b4f565b602082019050919050565b60006020820190508181036000830152613bb481613b78565b9050919050565b6000606082019050613bd06000830186612b8f565b613bdd602083018561308b565b613bea604083018461308b565b949350505050565b6000613bfe82856135f8565b9150613c0a82846135f8565b91508190509392505050565b7f596f752063616e6e6f742062757920796f7572206f776e20746f6b656e2e0000600082015250565b6000613c4c601e83612a53565b9150613c5782613c16565b602082019050919050565b60006020820190508181036000830152613c7b81613c3f565b9050919050565b7f496e73756666696369656e742066756e64732e00000000000000000000000000600082015250565b6000613cb8601383612a53565b9150613cc382613c82565b602082019050919050565b60006020820190508181036000830152613ce781613cab565b9050919050565b6000606082019050613d036000830186612b8f565b613d106020830185612b8f565b613d1d604083018461308b565b949350505050565b7f4552433732313a207472616e736665722066726f6d20696e636f72726563742060008201527f6f776e6572000000000000000000000000000000000000000000000000000000602082015250565b6000613d81602583612a53565b9150613d8c82613d25565b604082019050919050565b60006020820190508181036000830152613db081613d74565b9050919050565b7f4552433732313a207472616e7366657220746f20746865207a65726f2061646460008201527f7265737300000000000000000000000000000000000000000000000000000000602082015250565b6000613e13602483612a53565b9150613e1e82613db7565b604082019050919050565b60006020820190508181036000830152613e4281613e06565b9050919050565b7f4552433732313a20617070726f766520746f2063616c6c657200000000000000600082015250565b6000613e7f601983612a53565b9150613e8a82613e49565b602082019050919050565b60006020820190508181036000830152613eae81613e72565b9050919050565b7f4552433732313a207472616e7366657220746f206e6f6e20455243373231526560008201527f63656976657220696d706c656d656e7465720000000000000000000000000000602082015250565b6000613f11603283612a53565b9150613f1c82613eb5565b604082019050919050565b60006020820190508181036000830152613f4081613f04565b9050919050565b7f4e487b7100000000000000000000000000000000000000000000000000000000600052601260045260246000fd5b600081905092915050565b50565b6000613f91600083613f76565b9150613f9c82613f81565b600082019050919050565b6000613fb282613f84565b9150819050919050565b6000613fc782612afa565b9150613fd283612afa565b9250828203905081811115613fea57613fe961350a565b5b92915050565b6000613ffb82612afa565b915061400683612afa565b925082820190508082111561401e5761401d61350a565b5b92915050565b600081519050919050565b600082825260208201905092915050565b600061404b82614024565b614055818561402f565b9350614065818560208601612a64565b61406e81612a8e565b840191505092915050565b600060808201905061408e6000830187612b8f565b61409b6020830186612b8f565b6140a8604083018561308b565b81810360608301526140ba8184614040565b905095945050505050565b6000815190506140d4816129b9565b92915050565b6000602082840312156140f0576140ef612983565b5b60006140fe848285016140c5565b91505092915050565b7f5265656e7472616e637947756172643a207265656e7472616e742063616c6c00600082015250565b600061413d601f83612a53565b915061414882614107565b602082019050919050565b6000602082019050818103600083015261416c81614130565b9050919050565b7f4552433732313a206d696e7420746f20746865207a65726f2061646472657373600082015250565b60006141a9602083612a53565b91506141b482614173565b602082019050919050565b600060208201905081810360008301526141d88161419c565b9050919050565b7f4552433732313a20746f6b656e20616c7265616479206d696e74656400000000600082015250565b6000614215601c83612a53565b9150614220826141df565b602082019050919050565b6000602082019050818103600083015261424481614208565b905091905056fea26469706673582212202f256ed0d464211fb5dbf534170f2cda81055b03a9245ce0c9384a39a2b09c1064736f6c63430008110033",
  "immutableReferences": {},
  "source": "// SPDX-License-Identifier: MIT\r\n\r\npragma solidity ^0.8.0;\r\n\r\nimport \"@openzeppelin/contracts/utils/Counters.sol\";\r\nimport \"@openzeppelin/contracts/token/ERC721/ERC721.sol\";\r\nimport \"@openzeppelin/contracts/security/ReentrancyGuard.sol\";\r\n\r\n// NFT marketplace contract\r\ncontract NFTMarketplace is ERC721, ReentrancyGuard {\r\n    using Counters for Counters.Counter;\r\n\r\n    // Counter for token ID\r\n    Counters.Counter private _TokenId;\r\n\r\n    // Maximum supply of tokens\r\n    uint256 maxSupply = 10000;\r\n    // cost of minting a Token\r\n    // uint256 mintingFee = 2 ether;\r\n\r\n    // Token struct\r\n    struct Token {\r\n        address owner;\r\n        uint256 id;\r\n        string tokenURL;\r\n        string title;\r\n        uint256 price;\r\n        string description;\r\n        uint256 timestamp;\r\n    }\r\n\r\n    // Array to store all token transactions\r\n    Token[] transactions;\r\n\r\n    // Mapping to store each token by ID\r\n    mapping(uint256 => Token) private tokens;\r\n\r\n    // Array to keep track of all token IDs\r\n    uint256[] private tokenIdNumber;\r\n\r\n    // Address of the owner of the contract\r\n    address payable owner;\r\n\r\n    // Mapping to check if a token with a given URL has already been minted\r\n    mapping(string => bool) private mintedUrls;\r\n\r\n    // Event emitted when a new token is created\r\n    event TokenCreated(\r\n        address sender,\r\n        uint256 tokenId,\r\n        string title,\r\n        uint256 timestamp,\r\n        string tokenPicture,\r\n        uint256 tokenPrice\r\n    );\r\n\r\n    // Constructor to initialize the contract\r\n    constructor(\r\n        string memory _name,\r\n        string memory _symbol,\r\n        address _owner\r\n    ) ERC721(_name, _symbol) {\r\n        // Set the owner\r\n        owner = payable(_owner);\r\n    }\r\n\r\n    // Event emitted when a token is sold\r\n    event TokenSold(address from, address to, uint256 tokenId);\r\n\r\n    // Event emitted when the price of a token is changed\r\n    event TokenPriceChanged(address sender, uint256 tokenId, uint256 newPrice);\r\n\r\n    /**\r\n     * @dev Creates a new NFT and mints it to the caller of the function.\r\n     * @param tokenPicture The URL of the picture associated with the NFT.\r\n     * @param tokenTitle The title of the NFT.\r\n     * @param tokenDescription The description of the NFT.\r\n     * @param tokenPrice The price of the NFT.\r\n     */\r\n    function mint(\r\n        string memory tokenPicture,\r\n        string memory tokenTitle,\r\n        string memory tokenDescription,\r\n        uint256 tokenPrice\r\n    ) public payable {\r\n        // Check if maximum token supply has been reached\r\n        require(\r\n            _TokenId.current() <= maxSupply,\r\n            \"Maximum token supply reached\"\r\n        );\r\n\r\n        // Check if token with given picture already exists\r\n        require(\r\n            !mintedUrls[tokenPicture],\r\n            \"Token with this picture already exists.\"\r\n        );\r\n\r\n        // Increment token ID\r\n        _TokenId.increment();\r\n\r\n        // Get the current token ID\r\n        uint256 tokenId = _TokenId.current();\r\n\r\n        // Mint the new token to the sender\r\n        _safeMint(msg.sender, tokenId);\r\n\r\n        // Store token properties in tokens mapping\r\n        Token storage tk = tokens[tokenId];\r\n        tk.owner = msg.sender;\r\n        tk.id = tokenId;\r\n        tk.tokenURL = tokenPicture;\r\n        tk.title = tokenTitle;\r\n        tk.price = tokenPrice;\r\n        tk.description = tokenDescription;\r\n        tk.timestamp = block.timestamp;\r\n\r\n        // Push the token ID to tokenIdNumber array\r\n        tokenIdNumber.push(tokenId);\r\n\r\n        // Emit the TokenCreated event with relevant information\r\n        emit TokenCreated(\r\n            msg.sender,\r\n            tokenId,\r\n            tokenTitle,\r\n            block.timestamp,\r\n            tokenPicture,\r\n            tokenPrice\r\n        );\r\n\r\n        // Update mintedUrls mapping to prevent duplicate tokens with the same picture\r\n        mintedUrls[tokenPicture] = true;\r\n    }\r\n\r\n    // Function to list all NFTs in the marketplace\r\n    function listNFTs() public view returns (Token[] memory) {\r\n        // Create an array to store the result\r\n        Token[] memory result = new Token[](tokenIdNumber.length);\r\n\r\n        // Loop through all token IDs and add the corresponding token to the result array\r\n        for (uint256 i = 0; i < tokenIdNumber.length; i++) {\r\n            result[i] = tokens[tokenIdNumber[i]];\r\n        }\r\n\r\n        // Return the result array\r\n        return result;\r\n    }\r\n\r\n    // Function to retrieve the transaction history for all tokens\r\n    function transactionHistory() public view returns (Token[] memory) {\r\n        // Return the array of transactions\r\n        return transactions;\r\n    }\r\n\r\n    // Function to change the price of a token\r\n    function changePrice(uint256 tokenId, uint256 newPrice) public {\r\n        // Require that the caller is the owner of the token\r\n        require(\r\n            tokens[tokenId].owner == msg.sender,\r\n            \"You are not the owner of this token.\"\r\n        );\r\n        // Require that the new price is greater than 0\r\n        require(newPrice > 0, \"Price must be greater than 0.\");\r\n        // Update the price of the token\r\n        tokens[tokenId].price = newPrice;\r\n\r\n        // Emit an event to indicate that the price of the token has been changed\r\n        emit TokenPriceChanged(msg.sender, tokenId, newPrice);\r\n    }\r\n\r\n    // Function to buy a token\r\n    function buy(uint256 tokenId) public payable {\r\n        // Check that the caller is not the owner of the token\r\n        require(\r\n            tokens[tokenId].owner != msg.sender,\r\n            \"You cannot buy your own token.\"\r\n        );\r\n        // Check that the caller has sent enough ether to buy the token\r\n        require(msg.value >= tokens[tokenId].price, \"Insufficient funds.\");\r\n\r\n        // Send the ether to the token owner\r\n        payEther(tokens[tokenId].owner, msg.value);\r\n\r\n        // Add the transaction to the transaction history\r\n        transactions.push(\r\n            Token(\r\n                msg.sender,\r\n                tokenId,\r\n                tokens[tokenId].tokenURL,\r\n                tokens[tokenId].title,\r\n                msg.value,\r\n                tokens[tokenId].description,\r\n                block.timestamp\r\n            )\r\n        );\r\n        // Transfer the token to the buyer\r\n        _transfer(tokens[tokenId].owner, msg.sender, tokenId);\r\n\r\n        // Emit an event to indicate that the token has been sold\r\n        emit TokenSold(tokens[tokenId].owner, msg.sender, tokenId);\r\n        // Update the owner of the token to be the buyer\r\n        tokens[tokenId].owner = msg.sender;\r\n    }\r\n\r\n    // Function to send ether to an address\r\n    function payEther(address to, uint256 amount) internal nonReentrant {\r\n        // Send the ether to the specified address\r\n        (bool success, ) = payable(to).call{value: amount}(\"\");\r\n        // Check that the transfer was successful\r\n        require(success);\r\n    }\r\n}\r\n",
  "sourcePath": "C:\\Users\\LILLY\\projects\\GroupZee-Project\\Nftmarketplace\\contracts\\NFTMarketplace.sol",
  "compiler": {
    "name": "solc",
    "version": "0.8.17+commit.8df45f5f.Emscripten.clang"
  },
  "schemaVersion": "3.4.11",
  "updatedAt": "2023-03-03T19:28:00.558Z",
  "networkType": "ethereum",
  "devdoc": {
    "kind": "dev",
    "methods": {
      "approve(address,uint256)": {
        "details": "See {IERC721-approve}."
      },
      "balanceOf(address)": {
        "details": "See {IERC721-balanceOf}."
      },
      "getApproved(uint256)": {
        "details": "See {IERC721-getApproved}."
      },
      "isApprovedForAll(address,address)": {
        "details": "See {IERC721-isApprovedForAll}."
      },
      "mint(string,string,string,uint256)": {
        "details": "Creates a new NFT and mints it to the caller of the function.",
        "params": {
          "tokenDescription": "The description of the NFT.",
          "tokenPicture": "The URL of the picture associated with the NFT.",
          "tokenPrice": "The price of the NFT.",
          "tokenTitle": "The title of the NFT."
        }
      },
      "name()": {
        "details": "See {IERC721Metadata-name}."
      },
      "ownerOf(uint256)": {
        "details": "See {IERC721-ownerOf}."
      },
      "safeTransferFrom(address,address,uint256)": {
        "details": "See {IERC721-safeTransferFrom}."
      },
      "safeTransferFrom(address,address,uint256,bytes)": {
        "details": "See {IERC721-safeTransferFrom}."
      },
      "setApprovalForAll(address,bool)": {
        "details": "See {IERC721-setApprovalForAll}."
      },
      "supportsInterface(bytes4)": {
        "details": "See {IERC165-supportsInterface}."
      },
      "symbol()": {
        "details": "See {IERC721Metadata-symbol}."
      },
      "tokenURI(uint256)": {
        "details": "See {IERC721Metadata-tokenURI}."
      },
      "transferFrom(address,address,uint256)": {
        "details": "See {IERC721-transferFrom}."
      }
    },
    "version": 1
  },
  "userdoc": {
    "kind": "user",
    "methods": {},
    "version": 1
  }
}