{
  "contractName": "NFTMarketplace",
  "abi": [
    {
      "inputs": [
        {
          "internalType": "string",
          "name": "_name",
          "type": "string"
        },
        {
          "internalType": "string",
          "name": "_symbol",
          "type": "string"
        },
        {
          "internalType": "uint256",
          "name": "_royaltyFee",
          "type": "uint256"
        },
        {
          "internalType": "address",
          "name": "_artist",
          "type": "address"
        }
      ],
      "stateMutability": "nonpayable",
      "type": "constructor"
    },
    {
      "anonymous": false,
      "inputs": [
        {
          "indexed": true,
          "internalType": "address",
          "name": "owner",
          "type": "address"
        },
        {
          "indexed": true,
          "internalType": "address",
          "name": "approved",
          "type": "address"
        },
        {
          "indexed": true,
          "internalType": "uint256",
          "name": "tokenId",
          "type": "uint256"
        }
      ],
      "name": "Approval",
      "type": "event"
    },
    {
      "anonymous": false,
      "inputs": [
        {
          "indexed": true,
          "internalType": "address",
          "name": "owner",
          "type": "address"
        },
        {
          "indexed": true,
          "internalType": "address",
          "name": "operator",
          "type": "address"
        },
        {
          "indexed": false,
          "internalType": "bool",
          "name": "approved",
          "type": "bool"
        }
      ],
      "name": "ApprovalForAll",
      "type": "event"
    },
    {
      "anonymous": false,
      "inputs": [
        {
          "indexed": true,
          "internalType": "address",
          "name": "previousOwner",
          "type": "address"
        },
        {
          "indexed": true,
          "internalType": "address",
          "name": "newOwner",
          "type": "address"
        }
      ],
      "name": "OwnershipTransferred",
      "type": "event"
    },
    {
      "anonymous": false,
      "inputs": [
        {
          "indexed": false,
          "internalType": "uint256",
          "name": "id",
          "type": "uint256"
        },
        {
          "indexed": true,
          "internalType": "address",
          "name": "owner",
          "type": "address"
        },
        {
          "indexed": false,
          "internalType": "uint256",
          "name": "cost",
          "type": "uint256"
        },
        {
          "indexed": false,
          "internalType": "string",
          "name": "metadataURI",
          "type": "string"
        },
        {
          "indexed": false,
          "internalType": "uint256",
          "name": "timestamp",
          "type": "uint256"
        }
      ],
      "name": "Sale",
      "type": "event"
    },
    {
      "anonymous": false,
      "inputs": [
        {
          "indexed": true,
          "internalType": "address",
          "name": "from",
          "type": "address"
        },
        {
          "indexed": true,
          "internalType": "address",
          "name": "to",
          "type": "address"
        },
        {
          "indexed": true,
          "internalType": "uint256",
          "name": "tokenId",
          "type": "uint256"
        }
      ],
      "name": "Transfer",
      "type": "event"
    },
    {
      "inputs": [
        {
          "internalType": "address",
          "name": "to",
          "type": "address"
        },
        {
          "internalType": "uint256",
          "name": "tokenId",
          "type": "uint256"
        }
      ],
      "name": "approve",
      "outputs": [],
      "stateMutability": "nonpayable",
      "type": "function"
    },
    {
      "inputs": [],
      "name": "artist",
      "outputs": [
        {
          "internalType": "address",
          "name": "",
          "type": "address"
        }
      ],
      "stateMutability": "view",
      "type": "function",
      "constant": true
    },
    {
      "inputs": [
        {
          "internalType": "address",
          "name": "owner",
          "type": "address"
        }
      ],
      "name": "balanceOf",
      "outputs": [
        {
          "internalType": "uint256",
          "name": "",
          "type": "uint256"
        }
      ],
      "stateMutability": "view",
      "type": "function",
      "constant": true
    },
    {
      "inputs": [
        {
          "internalType": "uint256",
          "name": "tokenId",
          "type": "uint256"
        }
      ],
      "name": "getApproved",
      "outputs": [
        {
          "internalType": "address",
          "name": "",
          "type": "address"
        }
      ],
      "stateMutability": "view",
      "type": "function",
      "constant": true
    },
    {
      "inputs": [
        {
          "internalType": "address",
          "name": "owner",
          "type": "address"
        },
        {
          "internalType": "address",
          "name": "operator",
          "type": "address"
        }
      ],
      "name": "isApprovedForAll",
      "outputs": [
        {
          "internalType": "bool",
          "name": "",
          "type": "bool"
        }
      ],
      "stateMutability": "view",
      "type": "function",
      "constant": true
    },
    {
      "inputs": [],
      "name": "mintingCost",
      "outputs": [
        {
          "internalType": "uint256",
          "name": "",
          "type": "uint256"
        }
      ],
      "stateMutability": "view",
      "type": "function",
      "constant": true
    },
    {
      "inputs": [],
      "name": "name",
      "outputs": [
        {
          "internalType": "string",
          "name": "",
          "type": "string"
        }
      ],
      "stateMutability": "view",
      "type": "function",
      "constant": true
    },
    {
      "inputs": [],
      "name": "owner",
      "outputs": [
        {
          "internalType": "address",
          "name": "",
          "type": "address"
        }
      ],
      "stateMutability": "view",
      "type": "function",
      "constant": true
    },
    {
      "inputs": [
        {
          "internalType": "uint256",
          "name": "tokenId",
          "type": "uint256"
        }
      ],
      "name": "ownerOf",
      "outputs": [
        {
          "internalType": "address",
          "name": "",
          "type": "address"
        }
      ],
      "stateMutability": "view",
      "type": "function",
      "constant": true
    },
    {
      "inputs": [],
      "name": "renounceOwnership",
      "outputs": [],
      "stateMutability": "nonpayable",
      "type": "function"
    },
    {
      "inputs": [],
      "name": "royaltyFee",
      "outputs": [
        {
          "internalType": "uint256",
          "name": "",
          "type": "uint256"
        }
      ],
      "stateMutability": "view",
      "type": "function",
      "constant": true
    },
    {
      "inputs": [
        {
          "internalType": "address",
          "name": "from",
          "type": "address"
        },
        {
          "internalType": "address",
          "name": "to",
          "type": "address"
        },
        {
          "internalType": "uint256",
          "name": "tokenId",
          "type": "uint256"
        }
      ],
      "name": "safeTransferFrom",
      "outputs": [],
      "stateMutability": "payable",
      "type": "function",
      "payable": true
    },
    {
      "inputs": [
        {
          "internalType": "address",
          "name": "from",
          "type": "address"
        },
        {
          "internalType": "address",
          "name": "to",
          "type": "address"
        },
        {
          "internalType": "uint256",
          "name": "tokenId",
          "type": "uint256"
        },
        {
          "internalType": "bytes",
          "name": "_data",
          "type": "bytes"
        }
      ],
      "name": "safeTransferFrom",
      "outputs": [],
      "stateMutability": "payable",
      "type": "function",
      "payable": true
    },
    {
      "inputs": [
        {
          "internalType": "address",
          "name": "operator",
          "type": "address"
        },
        {
          "internalType": "bool",
          "name": "approved",
          "type": "bool"
        }
      ],
      "name": "setApprovalForAll",
      "outputs": [],
      "stateMutability": "nonpayable",
      "type": "function"
    },
    {
      "inputs": [],
      "name": "supply",
      "outputs": [
        {
          "internalType": "uint256",
          "name": "",
          "type": "uint256"
        }
      ],
      "stateMutability": "view",
      "type": "function",
      "constant": true
    },
    {
      "inputs": [
        {
          "internalType": "bytes4",
          "name": "interfaceId",
          "type": "bytes4"
        }
      ],
      "name": "supportsInterface",
      "outputs": [
        {
          "internalType": "bool",
          "name": "",
          "type": "bool"
        }
      ],
      "stateMutability": "view",
      "type": "function",
      "constant": true
    },
    {
      "inputs": [],
      "name": "symbol",
      "outputs": [
        {
          "internalType": "string",
          "name": "",
          "type": "string"
        }
      ],
      "stateMutability": "view",
      "type": "function",
      "constant": true
    },
    {
      "inputs": [
        {
          "internalType": "uint256",
          "name": "index",
          "type": "uint256"
        }
      ],
      "name": "tokenByIndex",
      "outputs": [
        {
          "internalType": "uint256",
          "name": "",
          "type": "uint256"
        }
      ],
      "stateMutability": "view",
      "type": "function",
      "constant": true
    },
    {
      "inputs": [
        {
          "internalType": "uint256",
          "name": "",
          "type": "uint256"
        }
      ],
      "name": "tokenHolders",
      "outputs": [
        {
          "internalType": "address",
          "name": "",
          "type": "address"
        }
      ],
      "stateMutability": "view",
      "type": "function",
      "constant": true
    },
    {
      "inputs": [
        {
          "internalType": "address",
          "name": "owner",
          "type": "address"
        },
        {
          "internalType": "uint256",
          "name": "index",
          "type": "uint256"
        }
      ],
      "name": "tokenOfOwnerByIndex",
      "outputs": [
        {
          "internalType": "uint256",
          "name": "",
          "type": "uint256"
        }
      ],
      "stateMutability": "view",
      "type": "function",
      "constant": true
    },
    {
      "inputs": [
        {
          "internalType": "uint256",
          "name": "tokenId",
          "type": "uint256"
        }
      ],
      "name": "tokenURI",
      "outputs": [
        {
          "internalType": "string",
          "name": "",
          "type": "string"
        }
      ],
      "stateMutability": "view",
      "type": "function",
      "constant": true
    },
    {
      "inputs": [],
      "name": "totalSupply",
      "outputs": [
        {
          "internalType": "uint256",
          "name": "",
          "type": "uint256"
        }
      ],
      "stateMutability": "view",
      "type": "function",
      "constant": true
    },
    {
      "inputs": [],
      "name": "totalTransactions",
      "outputs": [
        {
          "internalType": "uint256",
          "name": "",
          "type": "uint256"
        }
      ],
      "stateMutability": "view",
      "type": "function",
      "constant": true
    },
    {
      "inputs": [
        {
          "internalType": "address",
          "name": "from",
          "type": "address"
        },
        {
          "internalType": "address",
          "name": "to",
          "type": "address"
        },
        {
          "internalType": "uint256",
          "name": "tokenId",
          "type": "uint256"
        }
      ],
      "name": "transferFrom",
      "outputs": [],
      "stateMutability": "payable",
      "type": "function",
      "payable": true
    },
    {
      "inputs": [
        {
          "internalType": "address",
          "name": "newOwner",
          "type": "address"
        }
      ],
      "name": "transferOwnership",
      "outputs": [],
      "stateMutability": "nonpayable",
      "type": "function"
    },
    {
      "inputs": [
        {
          "internalType": "string",
          "name": "title",
          "type": "string"
        },
        {
          "internalType": "string",
          "name": "description",
          "type": "string"
        },
        {
          "internalType": "string",
          "name": "metadataURI",
          "type": "string"
        },
        {
          "internalType": "uint256",
          "name": "salesPrice",
          "type": "uint256"
        }
      ],
      "name": "mintNewToken",
      "outputs": [],
      "stateMutability": "payable",
      "type": "function",
      "payable": true
    },
    {
      "inputs": [
        {
          "internalType": "uint256",
          "name": "id",
          "type": "uint256"
        }
      ],
      "name": "purchaseToken",
      "outputs": [],
      "stateMutability": "payable",
      "type": "function",
      "payable": true
    },
    {
      "inputs": [
        {
          "internalType": "uint256",
          "name": "id",
          "type": "uint256"
        },
        {
          "internalType": "uint256",
          "name": "newPrice",
          "type": "uint256"
        }
      ],
      "name": "updatePrice",
      "outputs": [
        {
          "internalType": "bool",
          "name": "",
          "type": "bool"
        }
      ],
      "stateMutability": "nonpayable",
      "type": "function"
    },
    {
      "inputs": [],
      "name": "getAllTokenInfo",
      "outputs": [
        {
          "components": [
            {
              "internalType": "uint256",
              "name": "id",
              "type": "uint256"
            },
            {
              "internalType": "address",
              "name": "owner",
              "type": "address"
            },
            {
              "internalType": "uint256",
              "name": "cost",
              "type": "uint256"
            },
            {
              "internalType": "string",
              "name": "title",
              "type": "string"
            },
            {
              "internalType": "string",
              "name": "description",
              "type": "string"
            },
            {
              "internalType": "string",
              "name": "metadataURI",
              "type": "string"
            },
            {
              "internalType": "uint256",
              "name": "timestamp",
              "type": "uint256"
            }
          ],
          "internalType": "struct NFTMarketplace.Transaction[]",
          "name": "",
          "type": "tuple[]"
        }
      ],
      "stateMutability": "view",
      "type": "function",
      "constant": true
    },
    {
      "inputs": [
        {
          "internalType": "uint256",
          "name": "id",
          "type": "uint256"
        }
      ],
      "name": "getTokenInfo",
      "outputs": [
        {
          "components": [
            {
              "internalType": "uint256",
              "name": "id",
              "type": "uint256"
            },
            {
              "internalType": "address",
              "name": "owner",
              "type": "address"
            },
            {
              "internalType": "uint256",
              "name": "cost",
              "type": "uint256"
            },
            {
              "internalType": "string",
              "name": "title",
              "type": "string"
            },
            {
              "internalType": "string",
              "name": "description",
              "type": "string"
            },
            {
              "internalType": "string",
              "name": "metadataURI",
              "type": "string"
            },
            {
              "internalType": "uint256",
              "name": "timestamp",
              "type": "uint256"
            }
          ],
          "internalType": "struct NFTMarketplace.Transaction",
          "name": "",
          "type": "tuple"
        }
      ],
      "stateMutability": "view",
      "type": "function",
      "constant": true
    },
    {
      "inputs": [],
      "name": "getPastTransactions",
      "outputs": [
        {
          "components": [
            {
              "internalType": "uint256",
              "name": "id",
              "type": "uint256"
            },
            {
              "internalType": "address",
              "name": "owner",
              "type": "address"
            },
            {
              "internalType": "uint256",
              "name": "cost",
              "type": "uint256"
            },
            {
              "internalType": "string",
              "name": "title",
              "type": "string"
            },
            {
              "internalType": "string",
              "name": "description",
              "type": "string"
            },
            {
              "internalType": "string",
              "name": "metadataURI",
              "type": "string"
            },
            {
              "internalType": "uint256",
              "name": "timestamp",
              "type": "uint256"
            }
          ],
          "internalType": "struct NFTMarketplace.Transaction[]",
          "name": "",
          "type": "tuple[]"
        }
      ],
      "stateMutability": "view",
      "type": "function",
      "constant": true
    }
  ],
  "bytecode": "0x60806040526000600f556000601055662386f26fc100006011553480156200002657600080fd5b5060405162005cfb38038062005cfb83398181016040528101906200004c9190620003e7565b838381600090816200005f9190620006d8565b508060019081620000719190620006d8565b5050506200009462000088620000e660201b60201c565b620000ee60201b60201c565b81600e8190555080600d60006101000a81548173ffffffffffffffffffffffffffffffffffffffff021916908373ffffffffffffffffffffffffffffffffffffffff16021790555050505050620007bf565b600033905090565b6000600a60009054906101000a900473ffffffffffffffffffffffffffffffffffffffff16905081600a60006101000a81548173ffffffffffffffffffffffffffffffffffffffff021916908373ffffffffffffffffffffffffffffffffffffffff1602179055508173ffffffffffffffffffffffffffffffffffffffff168173ffffffffffffffffffffffffffffffffffffffff167f8be0079c531659141344cd1fd0a4f28419497f9722a3daafe3b4186f6b6457e060405160405180910390a35050565b6000604051905090565b600080fd5b600080fd5b600080fd5b600080fd5b6000601f19601f8301169050919050565b7f4e487b7100000000000000000000000000000000000000000000000000000000600052604160045260246000fd5b6200021d82620001d2565b810181811067ffffffffffffffff821117156200023f576200023e620001e3565b5b80604052505050565b600062000254620001b4565b905062000262828262000212565b919050565b600067ffffffffffffffff821115620002855762000284620001e3565b5b6200029082620001d2565b9050602081019050919050565b60005b83811015620002bd578082015181840152602081019050620002a0565b60008484015250505050565b6000620002e0620002da8462000267565b62000248565b905082815260208101848484011115620002ff57620002fe620001cd565b5b6200030c8482856200029d565b509392505050565b600082601f8301126200032c576200032b620001c8565b5b81516200033e848260208601620002c9565b91505092915050565b6000819050919050565b6200035c8162000347565b81146200036857600080fd5b50565b6000815190506200037c8162000351565b92915050565b600073ffffffffffffffffffffffffffffffffffffffff82169050919050565b6000620003af8262000382565b9050919050565b620003c181620003a2565b8114620003cd57600080fd5b50565b600081519050620003e181620003b6565b92915050565b60008060008060808587031215620004045762000403620001be565b5b600085015167ffffffffffffffff811115620004255762000424620001c3565b5b620004338782880162000314565b945050602085015167ffffffffffffffff811115620004575762000456620001c3565b5b620004658782880162000314565b935050604062000478878288016200036b565b92505060606200048b87828801620003d0565b91505092959194509250565b600081519050919050565b7f4e487b7100000000000000000000000000000000000000000000000000000000600052602260045260246000fd5b60006002820490506001821680620004ea57607f821691505b6020821081036200050057620004ff620004a2565b5b50919050565b60008190508160005260206000209050919050565b60006020601f8301049050919050565b600082821b905092915050565b6000600883026200056a7fffffffffffffffffffffffffffffffffffffffffffffffffffffffffffffffff826200052b565b6200057686836200052b565b95508019841693508086168417925050509392505050565b6000819050919050565b6000620005b9620005b3620005ad8462000347565b6200058e565b62000347565b9050919050565b6000819050919050565b620005d58362000598565b620005ed620005e482620005c0565b84845462000538565b825550505050565b600090565b62000604620005f5565b62000611818484620005ca565b505050565b5b8181101562000639576200062d600082620005fa565b60018101905062000617565b5050565b601f8211156200068857620006528162000506565b6200065d846200051b565b810160208510156200066d578190505b620006856200067c856200051b565b83018262000616565b50505b505050565b600082821c905092915050565b6000620006ad600019846008026200068d565b1980831691505092915050565b6000620006c883836200069a565b9150826002028217905092915050565b620006e38262000497565b67ffffffffffffffff811115620006ff57620006fe620001e3565b5b6200070b8254620004d1565b620007188282856200063d565b600060209050601f8311600181146200075057600084156200073b578287015190505b620007478582620006ba565b865550620007b7565b601f198416620007608662000506565b60005b828110156200078a5784890151825560018201915060208501945060208101905062000763565b86831015620007aa5784890151620007a6601f8916826200069a565b8355505b6001600288020188555050505b505050505050565b61552c80620007cf6000396000f3fe6080604052600436106101d85760003560e01c806382367b2d11610102578063b8997a9711610095578063cc218e7d11610064578063cc218e7d146106b7578063e985e9c5146106e2578063ebf98abf1461071f578063f2fde38b1461074a576101d8565b8063b8997a9714610608578063b9a6003814610633578063c2db2c421461065e578063c87b56dd1461067a576101d8565b806395abc091116100d157806395abc0911461056d57806395d89b4114610598578063a22cb465146105c3578063b88d4fde146105ec576101d8565b806382367b2d1461048b5780638c7a63ae146104c85780638da5cb5b14610505578063923108d914610530576101d8565b80632f745c591161017a5780635e7405a3116101495780635e7405a3146103de5780636352211e146103fa57806370a0823114610437578063715018a614610474576101d8565b80632f745c591461031d57806342842e0e1461035a57806343bc1612146103765780634f6ccce7146103a1576101d8565b8063081812fc116101b6578063081812fc14610270578063095ea7b3146102ad57806318160ddd146102d657806323b872dd14610301576101d8565b806301ffc9a7146101dd578063047fc9aa1461021a57806306fdde0314610245575b600080fd5b3480156101e957600080fd5b5061020460048036038101906101ff919061379d565b610773565b60405161021191906137e5565b60405180910390f35b34801561022657600080fd5b5061022f6107ed565b60405161023c9190613819565b60405180910390f35b34801561025157600080fd5b5061025a6107f3565b60405161026791906138c4565b60405180910390f35b34801561027c57600080fd5b5061029760048036038101906102929190613912565b610885565b6040516102a49190613980565b60405180910390f35b3480156102b957600080fd5b506102d460048036038101906102cf91906139c7565b61090a565b005b3480156102e257600080fd5b506102eb610a21565b6040516102f89190613819565b60405180910390f35b61031b60048036038101906103169190613a07565b610a2e565b005b34801561032957600080fd5b50610344600480360381019061033f91906139c7565b610a8e565b6040516103519190613819565b60405180910390f35b610374600480360381019061036f9190613a07565b610b33565b005b34801561038257600080fd5b5061038b610b53565b6040516103989190613980565b60405180910390f35b3480156103ad57600080fd5b506103c860048036038101906103c39190613912565b610b79565b6040516103d59190613819565b60405180910390f35b6103f860048036038101906103f39190613b8f565b610bea565b005b34801561040657600080fd5b50610421600480360381019061041c9190613912565b610fa7565b60405161042e9190613980565b60405180910390f35b34801561044357600080fd5b5061045e60048036038101906104599190613c4a565b611058565b60405161046b9190613819565b60405180910390f35b34801561048057600080fd5b5061048961110f565b005b34801561049757600080fd5b506104b260048036038101906104ad9190613c77565b611123565b6040516104bf91906137e5565b60405180910390f35b3480156104d457600080fd5b506104ef60048036038101906104ea9190613912565b611266565b6040516104fc9190613dc9565b60405180910390f35b34801561051157600080fd5b5061051a6114d8565b6040516105279190613980565b60405180910390f35b34801561053c57600080fd5b5061055760048036038101906105529190613912565b611502565b6040516105649190613980565b60405180910390f35b34801561057957600080fd5b50610582611535565b60405161058f9190613f57565b60405180910390f35b3480156105a457600080fd5b506105ad6117be565b6040516105ba91906138c4565b60405180910390f35b3480156105cf57600080fd5b506105ea60048036038101906105e59190613fa5565b611850565b005b61060660048036038101906106019190614086565b611866565b005b34801561061457600080fd5b5061061d6118c8565b60405161062a9190613819565b60405180910390f35b34801561063f57600080fd5b506106486118ce565b6040516106559190613819565b60405180910390f35b61067860048036038101906106739190613912565b6118d4565b005b34801561068657600080fd5b506106a1600480360381019061069c9190613912565b611f13565b6040516106ae91906138c4565b60405180910390f35b3480156106c357600080fd5b506106cc611fba565b6040516106d99190613f57565b60405180910390f35b3480156106ee57600080fd5b5061070960048036038101906107049190614109565b612243565b60405161071691906137e5565b60405180910390f35b34801561072b57600080fd5b506107346122d7565b6040516107419190613819565b60405180910390f35b34801561075657600080fd5b50610771600480360381019061076c9190613c4a565b6122dd565b005b60007f780e9d63000000000000000000000000000000000000000000000000000000007bffffffffffffffffffffffffffffffffffffffffffffffffffffffff1916827bffffffffffffffffffffffffffffffffffffffffffffffffffffffff191614806107e657506107e582612360565b5b9050919050565b600f5481565b60606000805461080290614178565b80601f016020809104026020016040519081016040528092919081815260200182805461082e90614178565b801561087b5780601f106108505761010080835404028352916020019161087b565b820191906000526020600020905b81548152906001019060200180831161085e57829003601f168201915b5050505050905090565b600061089082612442565b6108cf576040517f08c379a00000000000000000000000000000000000000000000000000000000081526004016108c69061421b565b60405180910390fd5b6004600083815260200190815260200160002060009054906101000a900473ffffffffffffffffffffffffffffffffffffffff169050919050565b600061091582610fa7565b90508073ffffffffffffffffffffffffffffffffffffffff168373ffffffffffffffffffffffffffffffffffffffff1603610985576040517f08c379a000000000000000000000000000000000000000000000000000000000815260040161097c906142ad565b60405180910390fd5b8073ffffffffffffffffffffffffffffffffffffffff166109a46124ae565b73ffffffffffffffffffffffffffffffffffffffff1614806109d357506109d2816109cd6124ae565b612243565b5b610a12576040517f08c379a0000000000000000000000000000000000000000000000000000000008152600401610a099061433f565b60405180910390fd5b610a1c83836124b6565b505050565b6000600880549050905090565b610a3f610a396124ae565b8261256f565b610a7e576040517f08c379a0000000000000000000000000000000000000000000000000000000008152600401610a75906143d1565b60405180910390fd5b610a8983838361264d565b505050565b6000610a9983611058565b8210610ada576040517f08c379a0000000000000000000000000000000000000000000000000000000008152600401610ad190614463565b60405180910390fd5b600660008473ffffffffffffffffffffffffffffffffffffffff1673ffffffffffffffffffffffffffffffffffffffff168152602001908152602001600020600083815260200190815260200160002054905092915050565b610b4e83838360405180602001604052806000815250611866565b505050565b600d60009054906101000a900473ffffffffffffffffffffffffffffffffffffffff1681565b6000610b83610a21565b8210610bc4576040517f08c379a0000000000000000000000000000000000000000000000000000000008152600401610bbb906144f5565b60405180910390fd5b60088281548110610bd857610bd7614515565b5b90600052602060002001549050919050565b601154341015610c2f576040517f08c379a0000000000000000000000000000000000000000000000000000000008152600401610c2690614590565b60405180910390fd5b6000600b83604051610c4191906145ec565b908152602001604051809103902060009054906101000a900460ff1660ff1614610ca0576040517f08c379a0000000000000000000000000000000000000000000000000000000008152600401610c979061464f565b60405180910390fd5b610ca86114d8565b73ffffffffffffffffffffffffffffffffffffffff163373ffffffffffffffffffffffffffffffffffffffff1603610d15576040517f08c379a0000000000000000000000000000000000000000000000000000000008152600401610d0c906146bb565b60405180910390fd5b60006064600e5434610d27919061470a565b610d31919061477b565b9050610d5f600d60009054906101000a900473ffffffffffffffffffffffffffffffffffffffff16826128a8565b610d7b610d6a6114d8565b8234610d7691906147ac565b6128a8565b600f6000815480929190610d8e906147e0565b919050555060136040518060e00160405280600f5481526020013373ffffffffffffffffffffffffffffffffffffffff1681526020018481526020018781526020018681526020018581526020014281525090806001815401808255809150506001900390600052602060002090600702016000909190919091506000820151816000015560208201518160010160006101000a81548173ffffffffffffffffffffffffffffffffffffffff021916908373ffffffffffffffffffffffffffffffffffffffff160217905550604082015181600201556060820151816003019081610e7991906149d4565b506080820151816004019081610e8f91906149d4565b5060a0820151816005019081610ea591906149d4565b5060c0820151816006015550503373ffffffffffffffffffffffffffffffffffffffff167fb9508407a6eccb191d8da3286f4173697cf95604e9ea192fe5ab7c862b5221f6600f54348642604051610f009493929190614aa6565b60405180910390a2610f1433600f54612923565b6001600b84604051610f2691906145ec565b908152602001604051809103902060006101000a81548160ff021916908360ff16021790555033600c6000600f54815260200190815260200160002060006101000a81548173ffffffffffffffffffffffffffffffffffffffff021916908373ffffffffffffffffffffffffffffffffffffffff1602179055505050505050565b6000806002600084815260200190815260200160002060009054906101000a900473ffffffffffffffffffffffffffffffffffffffff169050600073ffffffffffffffffffffffffffffffffffffffff168173ffffffffffffffffffffffffffffffffffffffff160361104f576040517f08c379a000000000000000000000000000000000000000000000000000000000815260040161104690614b64565b60405180910390fd5b80915050919050565b60008073ffffffffffffffffffffffffffffffffffffffff168273ffffffffffffffffffffffffffffffffffffffff16036110c8576040517f08c379a00000000000000000000000000000000000000000000000000000000081526004016110bf90614bf6565b60405180910390fd5b600360008373ffffffffffffffffffffffffffffffffffffffff1673ffffffffffffffffffffffffffffffffffffffff168152602001908152602001600020549050919050565b611117612941565b61112160006129bf565b565b6000808211611167576040517f08c379a000000000000000000000000000000000000000000000000000000000815260040161115e90614c62565b60405180910390fd5b601360018461117691906147ac565b8154811061118757611186614515565b5b906000526020600020906007020160010160009054906101000a900473ffffffffffffffffffffffffffffffffffffffff1673ffffffffffffffffffffffffffffffffffffffff163373ffffffffffffffffffffffffffffffffffffffff1614611226576040517f08c379a000000000000000000000000000000000000000000000000000000000815260040161121d90614cce565b60405180910390fd5b81601360018561123691906147ac565b8154811061124757611246614515565b5b9060005260206000209060070201600201819055506001905092915050565b61126e6136de565b601360018361127d91906147ac565b8154811061128e5761128d614515565b5b90600052602060002090600702016040518060e0016040529081600082015481526020016001820160009054906101000a900473ffffffffffffffffffffffffffffffffffffffff1673ffffffffffffffffffffffffffffffffffffffff1673ffffffffffffffffffffffffffffffffffffffff1681526020016002820154815260200160038201805461132190614178565b80601f016020809104026020016040519081016040528092919081815260200182805461134d90614178565b801561139a5780601f1061136f5761010080835404028352916020019161139a565b820191906000526020600020905b81548152906001019060200180831161137d57829003601f168201915b505050505081526020016004820180546113b390614178565b80601f01602080910402602001604051908101604052809291908181526020018280546113df90614178565b801561142c5780601f106114015761010080835404028352916020019161142c565b820191906000526020600020905b81548152906001019060200180831161140f57829003601f168201915b5050505050815260200160058201805461144590614178565b80601f016020809104026020016040519081016040528092919081815260200182805461147190614178565b80156114be5780601f10611493576101008083540402835291602001916114be565b820191906000526020600020905b8154815290600101906020018083116114a157829003601f168201915b505050505081526020016006820154815250509050919050565b6000600a60009054906101000a900473ffffffffffffffffffffffffffffffffffffffff16905090565b600c6020528060005260406000206000915054906101000a900473ffffffffffffffffffffffffffffffffffffffff1681565b60606013805480602002602001604051908101604052809291908181526020016000905b828210156117b557838290600052602060002090600702016040518060e0016040529081600082015481526020016001820160009054906101000a900473ffffffffffffffffffffffffffffffffffffffff1673ffffffffffffffffffffffffffffffffffffffff1673ffffffffffffffffffffffffffffffffffffffff168152602001600282015481526020016003820180546115f690614178565b80601f016020809104026020016040519081016040528092919081815260200182805461162290614178565b801561166f5780601f106116445761010080835404028352916020019161166f565b820191906000526020600020905b81548152906001019060200180831161165257829003601f168201915b5050505050815260200160048201805461168890614178565b80601f01602080910402602001604051908101604052809291908181526020018280546116b490614178565b80156117015780601f106116d657610100808354040283529160200191611701565b820191906000526020600020905b8154815290600101906020018083116116e457829003601f168201915b5050505050815260200160058201805461171a90614178565b80601f016020809104026020016040519081016040528092919081815260200182805461174690614178565b80156117935780601f1061176857610100808354040283529160200191611793565b820191906000526020600020905b81548152906001019060200180831161177657829003601f168201915b5050505050815260200160068201548152505081526020019060010190611559565b50505050905090565b6060600180546117cd90614178565b80601f01602080910402602001604051908101604052809291908181526020018280546117f990614178565b80156118465780601f1061181b57610100808354040283529160200191611846565b820191906000526020600020905b81548152906001019060200180831161182957829003601f168201915b5050505050905090565b61186261185b6124ae565b8383612a85565b5050565b6118776118716124ae565b8361256f565b6118b6576040517f08c379a00000000000000000000000000000000000000000000000000000000081526004016118ad906143d1565b60405180910390fd5b6118c284848484612bf1565b50505050565b600e5481565b60105481565b60136001826118e391906147ac565b815481106118f4576118f3614515565b5b906000526020600020906007020160020154341015611948576040517f08c379a000000000000000000000000000000000000000000000000000000000815260040161193f90614d3a565b60405180910390fd5b601360018261195791906147ac565b8154811061196857611967614515565b5b906000526020600020906007020160010160009054906101000a900473ffffffffffffffffffffffffffffffffffffffff1673ffffffffffffffffffffffffffffffffffffffff163373ffffffffffffffffffffffffffffffffffffffff1603611a07576040517f08c379a00000000000000000000000000000000000000000000000000000000081526004016119fe90614cce565b60405180910390fd5b60006064600e5434611a19919061470a565b611a23919061477b565b9050611a51600d60009054906101000a900473ffffffffffffffffffffffffffffffffffffffff16826128a8565b611ab76013600184611a6391906147ac565b81548110611a7457611a73614515565b5b906000526020600020906007020160010160009054906101000a900473ffffffffffffffffffffffffffffffffffffffff168234611ab291906147ac565b6128a8565b60106000815480929190611aca906147e0565b919050555060126040518060e0016040528060105481526020013373ffffffffffffffffffffffffffffffffffffffff1681526020013481526020016013600186611b1591906147ac565b81548110611b2657611b25614515565b5b90600052602060002090600702016003018054611b4290614178565b80601f0160208091040260200160405190810160405280929190818152602001828054611b6e90614178565b8015611bbb5780601f10611b9057610100808354040283529160200191611bbb565b820191906000526020600020905b815481529060010190602001808311611b9e57829003601f168201915b505050505081526020016013600186611bd491906147ac565b81548110611be557611be4614515565b5b90600052602060002090600702016004018054611c0190614178565b80601f0160208091040260200160405190810160405280929190818152602001828054611c2d90614178565b8015611c7a5780601f10611c4f57610100808354040283529160200191611c7a565b820191906000526020600020905b815481529060010190602001808311611c5d57829003601f168201915b505050505081526020016013600186611c9391906147ac565b81548110611ca457611ca3614515565b5b90600052602060002090600702016005018054611cc090614178565b80601f0160208091040260200160405190810160405280929190818152602001828054611cec90614178565b8015611d395780601f10611d0e57610100808354040283529160200191611d39565b820191906000526020600020905b815481529060010190602001808311611d1c57829003601f168201915b505050505081526020014281525090806001815401808255809150506001900390600052602060002090600702016000909190919091506000820151816000015560208201518160010160006101000a81548173ffffffffffffffffffffffffffffffffffffffff021916908373ffffffffffffffffffffffffffffffffffffffff160217905550604082015181600201556060820151816003019081611de091906149d4565b506080820151816004019081611df691906149d4565b5060a0820151816005019081611e0c91906149d4565b5060c0820151816006015550503373ffffffffffffffffffffffffffffffffffffffff167fb9508407a6eccb191d8da3286f4173697cf95604e9ea192fe5ab7c862b5221f6601054346013600187611e6491906147ac565b81548110611e7557611e74614515565b5b906000526020600020906007020160050142604051611e979493929190614dde565b60405180910390a2336013600184611eaf91906147ac565b81548110611ec057611ebf614515565b5b906000526020600020906007020160010160006101000a81548173ffffffffffffffffffffffffffffffffffffffff021916908373ffffffffffffffffffffffffffffffffffffffff1602179055505050565b6060611f1e82612442565b611f5d576040517f08c379a0000000000000000000000000000000000000000000000000000000008152600401611f5490614e9c565b60405180910390fd5b6000611f67612c4d565b90506000815111611f875760405180602001604052806000815250611fb2565b80611f9184612c64565b604051602001611fa2929190614ebc565b6040516020818303038152906040525b915050919050565b60606012805480602002602001604051908101604052809291908181526020016000905b8282101561223a57838290600052602060002090600702016040518060e0016040529081600082015481526020016001820160009054906101000a900473ffffffffffffffffffffffffffffffffffffffff1673ffffffffffffffffffffffffffffffffffffffff1673ffffffffffffffffffffffffffffffffffffffff1681526020016002820154815260200160038201805461207b90614178565b80601f01602080910402602001604051908101604052809291908181526020018280546120a790614178565b80156120f45780601f106120c9576101008083540402835291602001916120f4565b820191906000526020600020905b8154815290600101906020018083116120d757829003601f168201915b5050505050815260200160048201805461210d90614178565b80601f016020809104026020016040519081016040528092919081815260200182805461213990614178565b80156121865780601f1061215b57610100808354040283529160200191612186565b820191906000526020600020905b81548152906001019060200180831161216957829003601f168201915b5050505050815260200160058201805461219f90614178565b80601f01602080910402602001604051908101604052809291908181526020018280546121cb90614178565b80156122185780601f106121ed57610100808354040283529160200191612218565b820191906000526020600020905b8154815290600101906020018083116121fb57829003601f168201915b5050505050815260200160068201548152505081526020019060010190611fde565b50505050905090565b6000600560008473ffffffffffffffffffffffffffffffffffffffff1673ffffffffffffffffffffffffffffffffffffffff16815260200190815260200160002060008373ffffffffffffffffffffffffffffffffffffffff1673ffffffffffffffffffffffffffffffffffffffff16815260200190815260200160002060009054906101000a900460ff16905092915050565b60115481565b6122e5612941565b600073ffffffffffffffffffffffffffffffffffffffff168173ffffffffffffffffffffffffffffffffffffffff1603612354576040517f08c379a000000000000000000000000000000000000000000000000000000000815260040161234b90614f52565b60405180910390fd5b61235d816129bf565b50565b60007f80ac58cd000000000000000000000000000000000000000000000000000000007bffffffffffffffffffffffffffffffffffffffffffffffffffffffff1916827bffffffffffffffffffffffffffffffffffffffffffffffffffffffff1916148061242b57507f5b5e139f000000000000000000000000000000000000000000000000000000007bffffffffffffffffffffffffffffffffffffffffffffffffffffffff1916827bffffffffffffffffffffffffffffffffffffffffffffffffffffffff1916145b8061243b575061243a82612d32565b5b9050919050565b60008073ffffffffffffffffffffffffffffffffffffffff166002600084815260200190815260200160002060009054906101000a900473ffffffffffffffffffffffffffffffffffffffff1673ffffffffffffffffffffffffffffffffffffffff1614159050919050565b600033905090565b816004600083815260200190815260200160002060006101000a81548173ffffffffffffffffffffffffffffffffffffffff021916908373ffffffffffffffffffffffffffffffffffffffff160217905550808273ffffffffffffffffffffffffffffffffffffffff1661252983610fa7565b73ffffffffffffffffffffffffffffffffffffffff167f8c5be1e5ebec7d5bd14f71427d1e84f3dd0314c0f7b2291e5b200ac8c7c3b92560405160405180910390a45050565b600061257a82612442565b6125b9576040517f08c379a00000000000000000000000000000000000000000000000000000000081526004016125b090614fe4565b60405180910390fd5b60006125c483610fa7565b90508073ffffffffffffffffffffffffffffffffffffffff168473ffffffffffffffffffffffffffffffffffffffff16148061263357508373ffffffffffffffffffffffffffffffffffffffff1661261b84610885565b73ffffffffffffffffffffffffffffffffffffffff16145b8061264457506126438185612243565b5b91505092915050565b8273ffffffffffffffffffffffffffffffffffffffff1661266d82610fa7565b73ffffffffffffffffffffffffffffffffffffffff16146126c3576040517f08c379a00000000000000000000000000000000000000000000000000000000081526004016126ba90615076565b60405180910390fd5b600073ffffffffffffffffffffffffffffffffffffffff168273ffffffffffffffffffffffffffffffffffffffff1603612732576040517f08c379a000000000000000000000000000000000000000000000000000000000815260040161272990615108565b60405180910390fd5b61273d838383612d9c565b6127486000826124b6565b6001600360008573ffffffffffffffffffffffffffffffffffffffff1673ffffffffffffffffffffffffffffffffffffffff168152602001908152602001600020600082825461279891906147ac565b925050819055506001600360008473ffffffffffffffffffffffffffffffffffffffff1673ffffffffffffffffffffffffffffffffffffffff16815260200190815260200160002060008282546127ef9190615128565b92505081905550816002600083815260200190815260200160002060006101000a81548173ffffffffffffffffffffffffffffffffffffffff021916908373ffffffffffffffffffffffffffffffffffffffff160217905550808273ffffffffffffffffffffffffffffffffffffffff168473ffffffffffffffffffffffffffffffffffffffff167fddf252ad1be2c89b69c2b068fc378daa952ba7f163c4a11628f55a4df523b3ef60405160405180910390a4505050565b60008273ffffffffffffffffffffffffffffffffffffffff16826040516128ce9061518d565b60006040518083038185875af1925050503d806000811461290b576040519150601f19603f3d011682016040523d82523d6000602084013e612910565b606091505b505090508061291e57600080fd5b505050565b61293d828260405180602001604052806000815250612eae565b5050565b6129496124ae565b73ffffffffffffffffffffffffffffffffffffffff166129676114d8565b73ffffffffffffffffffffffffffffffffffffffff16146129bd576040517f08c379a00000000000000000000000000000000000000000000000000000000081526004016129b4906151ee565b60405180910390fd5b565b6000600a60009054906101000a900473ffffffffffffffffffffffffffffffffffffffff16905081600a60006101000a81548173ffffffffffffffffffffffffffffffffffffffff021916908373ffffffffffffffffffffffffffffffffffffffff1602179055508173ffffffffffffffffffffffffffffffffffffffff168173ffffffffffffffffffffffffffffffffffffffff167f8be0079c531659141344cd1fd0a4f28419497f9722a3daafe3b4186f6b6457e060405160405180910390a35050565b8173ffffffffffffffffffffffffffffffffffffffff168373ffffffffffffffffffffffffffffffffffffffff1603612af3576040517f08c379a0000000000000000000000000000000000000000000000000000000008152600401612aea9061525a565b60405180910390fd5b80600560008573ffffffffffffffffffffffffffffffffffffffff1673ffffffffffffffffffffffffffffffffffffffff16815260200190815260200160002060008473ffffffffffffffffffffffffffffffffffffffff1673ffffffffffffffffffffffffffffffffffffffff16815260200190815260200160002060006101000a81548160ff0219169083151502179055508173ffffffffffffffffffffffffffffffffffffffff168373ffffffffffffffffffffffffffffffffffffffff167f17307eab39ab6107e8899845ad3d59bd9653f200f220920489ca2b5937696c3183604051612be491906137e5565b60405180910390a3505050565b612bfc84848461264d565b612c0884848484612f09565b612c47576040517f08c379a0000000000000000000000000000000000000000000000000000000008152600401612c3e906152ec565b60405180910390fd5b50505050565b606060405180602001604052806000815250905090565b606060006001612c7384613090565b01905060008167ffffffffffffffff811115612c9257612c91613a64565b5b6040519080825280601f01601f191660200182016040528015612cc45781602001600182028036833780820191505090505b509050600082602001820190505b600115612d27578080600190039150507f3031323334353637383961626364656600000000000000000000000000000000600a86061a8153600a8581612d1b57612d1a61474c565b5b04945060008503612cd2575b819350505050919050565b60007f01ffc9a7000000000000000000000000000000000000000000000000000000007bffffffffffffffffffffffffffffffffffffffffffffffffffffffff1916827bffffffffffffffffffffffffffffffffffffffffffffffffffffffff1916149050919050565b612da78383836131e3565b600073ffffffffffffffffffffffffffffffffffffffff168373ffffffffffffffffffffffffffffffffffffffff1603612de957612de4816131e8565b612e28565b8173ffffffffffffffffffffffffffffffffffffffff168373ffffffffffffffffffffffffffffffffffffffff1614612e2757612e268382613231565b5b5b600073ffffffffffffffffffffffffffffffffffffffff168273ffffffffffffffffffffffffffffffffffffffff1603612e6a57612e658161339e565b612ea9565b8273ffffffffffffffffffffffffffffffffffffffff168273ffffffffffffffffffffffffffffffffffffffff1614612ea857612ea7828261346f565b5b5b505050565b612eb883836134ee565b612ec56000848484612f09565b612f04576040517f08c379a0000000000000000000000000000000000000000000000000000000008152600401612efb906152ec565b60405180910390fd5b505050565b6000612f2a8473ffffffffffffffffffffffffffffffffffffffff166136bb565b15613083578373ffffffffffffffffffffffffffffffffffffffff1663150b7a02612f536124ae565b8786866040518563ffffffff1660e01b8152600401612f759493929190615361565b6020604051808303816000875af1925050508015612fb157506040513d601f19601f82011682018060405250810190612fae91906153c2565b60015b613033573d8060008114612fe1576040519150601f19603f3d011682016040523d82523d6000602084013e612fe6565b606091505b50600081510361302b576040517f08c379a0000000000000000000000000000000000000000000000000000000008152600401613022906152ec565b60405180910390fd5b805181602001fd5b63150b7a0260e01b7bffffffffffffffffffffffffffffffffffffffffffffffffffffffff1916817bffffffffffffffffffffffffffffffffffffffffffffffffffffffff191614915050613088565b600190505b949350505050565b600080600090507a184f03e93ff9f4daa797ed6e38ed64bf6a1f01000000000000000083106130ee577a184f03e93ff9f4daa797ed6e38ed64bf6a1f01000000000000000083816130e4576130e361474c565b5b0492506040810190505b6d04ee2d6d415b85acef8100000000831061312b576d04ee2d6d415b85acef810000000083816131215761312061474c565b5b0492506020810190505b662386f26fc10000831061315a57662386f26fc1000083816131505761314f61474c565b5b0492506010810190505b6305f5e1008310613183576305f5e10083816131795761317861474c565b5b0492506008810190505b61271083106131a857612710838161319e5761319d61474c565b5b0492506004810190505b606483106131cb57606483816131c1576131c061474c565b5b0492506002810190505b600a83106131da576001810190505b80915050919050565b505050565b6008805490506009600083815260200190815260200160002081905550600881908060018154018082558091505060019003906000526020600020016000909190919091505550565b6000600161323e84611058565b61324891906147ac565b905060006007600084815260200190815260200160002054905081811461332d576000600660008673ffffffffffffffffffffffffffffffffffffffff1673ffffffffffffffffffffffffffffffffffffffff168152602001908152602001600020600084815260200190815260200160002054905080600660008773ffffffffffffffffffffffffffffffffffffffff1673ffffffffffffffffffffffffffffffffffffffff168152602001908152602001600020600084815260200190815260200160002081905550816007600083815260200190815260200160002081905550505b6007600084815260200190815260200160002060009055600660008573ffffffffffffffffffffffffffffffffffffffff1673ffffffffffffffffffffffffffffffffffffffff16815260200190815260200160002060008381526020019081526020016000206000905550505050565b600060016008805490506133b291906147ac565b90506000600960008481526020019081526020016000205490506000600883815481106133e2576133e1614515565b5b90600052602060002001549050806008838154811061340457613403614515565b5b906000526020600020018190555081600960008381526020019081526020016000208190555060096000858152602001908152602001600020600090556008805480613453576134526153ef565b5b6001900381819060005260206000200160009055905550505050565b600061347a83611058565b905081600660008573ffffffffffffffffffffffffffffffffffffffff1673ffffffffffffffffffffffffffffffffffffffff168152602001908152602001600020600083815260200190815260200160002081905550806007600084815260200190815260200160002081905550505050565b600073ffffffffffffffffffffffffffffffffffffffff168273ffffffffffffffffffffffffffffffffffffffff160361355d576040517f08c379a00000000000000000000000000000000000000000000000000000000081526004016135549061546a565b60405180910390fd5b61356681612442565b156135a6576040517f08c379a000000000000000000000000000000000000000000000000000000000815260040161359d906154d6565b60405180910390fd5b6135b260008383612d9c565b6001600360008473ffffffffffffffffffffffffffffffffffffffff1673ffffffffffffffffffffffffffffffffffffffff16815260200190815260200160002060008282546136029190615128565b92505081905550816002600083815260200190815260200160002060006101000a81548173ffffffffffffffffffffffffffffffffffffffff021916908373ffffffffffffffffffffffffffffffffffffffff160217905550808273ffffffffffffffffffffffffffffffffffffffff16600073ffffffffffffffffffffffffffffffffffffffff167fddf252ad1be2c89b69c2b068fc378daa952ba7f163c4a11628f55a4df523b3ef60405160405180910390a45050565b6000808273ffffffffffffffffffffffffffffffffffffffff163b119050919050565b6040518060e0016040528060008152602001600073ffffffffffffffffffffffffffffffffffffffff16815260200160008152602001606081526020016060815260200160608152602001600081525090565b6000604051905090565b600080fd5b600080fd5b60007fffffffff0000000000000000000000000000000000000000000000000000000082169050919050565b61377a81613745565b811461378557600080fd5b50565b60008135905061379781613771565b92915050565b6000602082840312156137b3576137b261373b565b5b60006137c184828501613788565b91505092915050565b60008115159050919050565b6137df816137ca565b82525050565b60006020820190506137fa60008301846137d6565b92915050565b6000819050919050565b61381381613800565b82525050565b600060208201905061382e600083018461380a565b92915050565b600081519050919050565b600082825260208201905092915050565b60005b8381101561386e578082015181840152602081019050613853565b60008484015250505050565b6000601f19601f8301169050919050565b600061389682613834565b6138a0818561383f565b93506138b0818560208601613850565b6138b98161387a565b840191505092915050565b600060208201905081810360008301526138de818461388b565b905092915050565b6138ef81613800565b81146138fa57600080fd5b50565b60008135905061390c816138e6565b92915050565b6000602082840312156139285761392761373b565b5b6000613936848285016138fd565b91505092915050565b600073ffffffffffffffffffffffffffffffffffffffff82169050919050565b600061396a8261393f565b9050919050565b61397a8161395f565b82525050565b60006020820190506139956000830184613971565b92915050565b6139a48161395f565b81146139af57600080fd5b50565b6000813590506139c18161399b565b92915050565b600080604083850312156139de576139dd61373b565b5b60006139ec858286016139b2565b92505060206139fd858286016138fd565b9150509250929050565b600080600060608486031215613a2057613a1f61373b565b5b6000613a2e868287016139b2565b9350506020613a3f868287016139b2565b9250506040613a50868287016138fd565b9150509250925092565b600080fd5b600080fd5b7f4e487b7100000000000000000000000000000000000000000000000000000000600052604160045260246000fd5b613a9c8261387a565b810181811067ffffffffffffffff82111715613abb57613aba613a64565b5b80604052505050565b6000613ace613731565b9050613ada8282613a93565b919050565b600067ffffffffffffffff821115613afa57613af9613a64565b5b613b038261387a565b9050602081019050919050565b82818337600083830152505050565b6000613b32613b2d84613adf565b613ac4565b905082815260208101848484011115613b4e57613b4d613a5f565b5b613b59848285613b10565b509392505050565b600082601f830112613b7657613b75613a5a565b5b8135613b86848260208601613b1f565b91505092915050565b60008060008060808587031215613ba957613ba861373b565b5b600085013567ffffffffffffffff811115613bc757613bc6613740565b5b613bd387828801613b61565b945050602085013567ffffffffffffffff811115613bf457613bf3613740565b5b613c0087828801613b61565b935050604085013567ffffffffffffffff811115613c2157613c20613740565b5b613c2d87828801613b61565b9250506060613c3e878288016138fd565b91505092959194509250565b600060208284031215613c6057613c5f61373b565b5b6000613c6e848285016139b2565b91505092915050565b60008060408385031215613c8e57613c8d61373b565b5b6000613c9c858286016138fd565b9250506020613cad858286016138fd565b9150509250929050565b613cc081613800565b82525050565b613ccf8161395f565b82525050565b600082825260208201905092915050565b6000613cf182613834565b613cfb8185613cd5565b9350613d0b818560208601613850565b613d148161387a565b840191505092915050565b600060e083016000830151613d376000860182613cb7565b506020830151613d4a6020860182613cc6565b506040830151613d5d6040860182613cb7565b5060608301518482036060860152613d758282613ce6565b91505060808301518482036080860152613d8f8282613ce6565b91505060a083015184820360a0860152613da98282613ce6565b91505060c0830151613dbe60c0860182613cb7565b508091505092915050565b60006020820190508181036000830152613de38184613d1f565b905092915050565b600081519050919050565b600082825260208201905092915050565b6000819050602082019050919050565b600060e083016000830151613e2f6000860182613cb7565b506020830151613e426020860182613cc6565b506040830151613e556040860182613cb7565b5060608301518482036060860152613e6d8282613ce6565b91505060808301518482036080860152613e878282613ce6565b91505060a083015184820360a0860152613ea18282613ce6565b91505060c0830151613eb660c0860182613cb7565b508091505092915050565b6000613ecd8383613e17565b905092915050565b6000602082019050919050565b6000613eed82613deb565b613ef78185613df6565b935083602082028501613f0985613e07565b8060005b85811015613f455784840389528151613f268582613ec1565b9450613f3183613ed5565b925060208a01995050600181019050613f0d565b50829750879550505050505092915050565b60006020820190508181036000830152613f718184613ee2565b905092915050565b613f82816137ca565b8114613f8d57600080fd5b50565b600081359050613f9f81613f79565b92915050565b60008060408385031215613fbc57613fbb61373b565b5b6000613fca858286016139b2565b9250506020613fdb85828601613f90565b9150509250929050565b600067ffffffffffffffff82111561400057613fff613a64565b5b6140098261387a565b9050602081019050919050565b600061402961402484613fe5565b613ac4565b90508281526020810184848401111561404557614044613a5f565b5b614050848285613b10565b509392505050565b600082601f83011261406d5761406c613a5a565b5b813561407d848260208601614016565b91505092915050565b600080600080608085870312156140a05761409f61373b565b5b60006140ae878288016139b2565b94505060206140bf878288016139b2565b93505060406140d0878288016138fd565b925050606085013567ffffffffffffffff8111156140f1576140f0613740565b5b6140fd87828801614058565b91505092959194509250565b600080604083850312156141205761411f61373b565b5b600061412e858286016139b2565b925050602061413f858286016139b2565b9150509250929050565b7f4e487b7100000000000000000000000000000000000000000000000000000000600052602260045260246000fd5b6000600282049050600182168061419057607f821691505b6020821081036141a3576141a2614149565b5b50919050565b7f4552433732313a20617070726f76656420717565727920666f72206e6f6e657860008201527f697374656e7420746f6b656e0000000000000000000000000000000000000000602082015250565b6000614205602c8361383f565b9150614210826141a9565b604082019050919050565b60006020820190508181036000830152614234816141f8565b9050919050565b7f4552433732313a20617070726f76616c20746f2063757272656e74206f776e6560008201527f7200000000000000000000000000000000000000000000000000000000000000602082015250565b600061429760218361383f565b91506142a28261423b565b604082019050919050565b600060208201905081810360008301526142c68161428a565b9050919050565b7f4552433732313a20617070726f76652063616c6c6572206973206e6f74206f7760008201527f6e6572206e6f7220617070726f76656420666f7220616c6c0000000000000000602082015250565b600061432960388361383f565b9150614334826142cd565b604082019050919050565b600060208201905081810360008301526143588161431c565b9050919050565b7f4552433732313a207472616e736665722063616c6c6572206973206e6f74206f60008201527f776e6572206e6f7220617070726f766564000000000000000000000000000000602082015250565b60006143bb60318361383f565b91506143c68261435f565b604082019050919050565b600060208201905081810360008301526143ea816143ae565b9050919050565b7f455243373231456e756d657261626c653a206f776e657220696e646578206f7560008201527f74206f6620626f756e6473000000000000000000000000000000000000000000602082015250565b600061444d602b8361383f565b9150614458826143f1565b604082019050919050565b6000602082019050818103600083015261447c81614440565b9050919050565b7f455243373231456e756d657261626c653a20676c6f62616c20696e646578206f60008201527f7574206f6620626f756e64730000000000000000000000000000000000000000602082015250565b60006144df602c8361383f565b91506144ea82614483565b604082019050919050565b6000602082019050818103600083015261450e816144d2565b9050919050565b7f4e487b7100000000000000000000000000000000000000000000000000000000600052603260045260246000fd5b7f457468657220746f6f206c6f7720666f72206d696e74696e6721000000000000600082015250565b600061457a601a8361383f565b915061458582614544565b602082019050919050565b600060208201905081810360008301526145a98161456d565b9050919050565b600081905092915050565b60006145c682613834565b6145d081856145b0565b93506145e0818560208601613850565b80840191505092915050565b60006145f882846145bb565b915081905092915050565b7f54686973204e465420697320616c7265616479206d696e746564210000000000600082015250565b6000614639601b8361383f565b915061464482614603565b602082019050919050565b600060208201905081810360008301526146688161462c565b9050919050565b7f53616c6573206e6f7420616c6c6f776564210000000000000000000000000000600082015250565b60006146a560128361383f565b91506146b08261466f565b602082019050919050565b600060208201905081810360008301526146d481614698565b9050919050565b7f4e487b7100000000000000000000000000000000000000000000000000000000600052601160045260246000fd5b600061471582613800565b915061472083613800565b925082820261472e81613800565b91508282048414831517614745576147446146db565b5b5092915050565b7f4e487b7100000000000000000000000000000000000000000000000000000000600052601260045260246000fd5b600061478682613800565b915061479183613800565b9250826147a1576147a061474c565b5b828204905092915050565b60006147b782613800565b91506147c283613800565b92508282039050818111156147da576147d96146db565b5b92915050565b60006147eb82613800565b91507fffffffffffffffffffffffffffffffffffffffffffffffffffffffffffffffff820361481d5761481c6146db565b5b600182019050919050565b60008190508160005260206000209050919050565b60006020601f8301049050919050565b600082821b905092915050565b60006008830261488a7fffffffffffffffffffffffffffffffffffffffffffffffffffffffffffffffff8261484d565b614894868361484d565b95508019841693508086168417925050509392505050565b6000819050919050565b60006148d16148cc6148c784613800565b6148ac565b613800565b9050919050565b6000819050919050565b6148eb836148b6565b6148ff6148f7826148d8565b84845461485a565b825550505050565b600090565b614914614907565b61491f8184846148e2565b505050565b5b818110156149435761493860008261490c565b600181019050614925565b5050565b601f8211156149885761495981614828565b6149628461483d565b81016020851015614971578190505b61498561497d8561483d565b830182614924565b50505b505050565b600082821c905092915050565b60006149ab6000198460080261498d565b1980831691505092915050565b60006149c4838361499a565b9150826002028217905092915050565b6149dd82613834565b67ffffffffffffffff8111156149f6576149f5613a64565b5b614a008254614178565b614a0b828285614947565b600060209050601f831160018114614a3e5760008415614a2c578287015190505b614a3685826149b8565b865550614a9e565b601f198416614a4c86614828565b60005b82811015614a7457848901518255600182019150602085019450602081019050614a4f565b86831015614a915784890151614a8d601f89168261499a565b8355505b6001600288020188555050505b505050505050565b6000608082019050614abb600083018761380a565b614ac8602083018661380a565b8181036040830152614ada818561388b565b9050614ae9606083018461380a565b95945050505050565b7f4552433732313a206f776e657220717565727920666f72206e6f6e657869737460008201527f656e7420746f6b656e0000000000000000000000000000000000000000000000602082015250565b6000614b4e60298361383f565b9150614b5982614af2565b604082019050919050565b60006020820190508181036000830152614b7d81614b41565b9050919050565b7f4552433732313a2062616c616e636520717565727920666f7220746865207a6560008201527f726f206164647265737300000000000000000000000000000000000000000000602082015250565b6000614be0602a8361383f565b9150614beb82614b84565b604082019050919050565b60006020820190508181036000830152614c0f81614bd3565b9050919050565b7f457468657220746f6f206c6f7721000000000000000000000000000000000000600082015250565b6000614c4c600e8361383f565b9150614c5782614c16565b602082019050919050565b60006020820190508181036000830152614c7b81614c3f565b9050919050565b7f4f7065726174696f6e204e6f7420416c6c6f7765642100000000000000000000600082015250565b6000614cb860168361383f565b9150614cc382614c82565b602082019050919050565b60006020820190508181036000830152614ce781614cab565b9050919050565b7f457468657220746f6f206c6f7720666f72207075726368617365210000000000600082015250565b6000614d24601b8361383f565b9150614d2f82614cee565b602082019050919050565b60006020820190508181036000830152614d5381614d17565b9050919050565b60008154614d6781614178565b614d71818661383f565b94506001821660008114614d8c5760018114614da257614dd5565b60ff198316865281151560200286019350614dd5565b614dab85614828565b60005b83811015614dcd57815481890152600182019150602081019050614dae565b808801955050505b50505092915050565b6000608082019050614df3600083018761380a565b614e00602083018661380a565b8181036040830152614e128185614d5a565b9050614e21606083018461380a565b95945050505050565b7f4552433732314d657461646174613a2055524920717565727920666f72206e6f60008201527f6e6578697374656e7420746f6b656e0000000000000000000000000000000000602082015250565b6000614e86602f8361383f565b9150614e9182614e2a565b604082019050919050565b60006020820190508181036000830152614eb581614e79565b9050919050565b6000614ec882856145bb565b9150614ed482846145bb565b91508190509392505050565b7f4f776e61626c653a206e6577206f776e657220697320746865207a65726f206160008201527f6464726573730000000000000000000000000000000000000000000000000000602082015250565b6000614f3c60268361383f565b9150614f4782614ee0565b604082019050919050565b60006020820190508181036000830152614f6b81614f2f565b9050919050565b7f4552433732313a206f70657261746f7220717565727920666f72206e6f6e657860008201527f697374656e7420746f6b656e0000000000000000000000000000000000000000602082015250565b6000614fce602c8361383f565b9150614fd982614f72565b604082019050919050565b60006020820190508181036000830152614ffd81614fc1565b9050919050565b7f4552433732313a207472616e73666572206f6620746f6b656e2074686174206960008201527f73206e6f74206f776e0000000000000000000000000000000000000000000000602082015250565b600061506060298361383f565b915061506b82615004565b604082019050919050565b6000602082019050818103600083015261508f81615053565b9050919050565b7f4552433732313a207472616e7366657220746f20746865207a65726f2061646460008201527f7265737300000000000000000000000000000000000000000000000000000000602082015250565b60006150f260248361383f565b91506150fd82615096565b604082019050919050565b60006020820190508181036000830152615121816150e5565b9050919050565b600061513382613800565b915061513e83613800565b9250828201905080821115615156576151556146db565b5b92915050565b600081905092915050565b50565b600061517760008361515c565b915061518282615167565b600082019050919050565b60006151988261516a565b9150819050919050565b7f4f776e61626c653a2063616c6c6572206973206e6f7420746865206f776e6572600082015250565b60006151d860208361383f565b91506151e3826151a2565b602082019050919050565b60006020820190508181036000830152615207816151cb565b9050919050565b7f4552433732313a20617070726f766520746f2063616c6c657200000000000000600082015250565b600061524460198361383f565b915061524f8261520e565b602082019050919050565b6000602082019050818103600083015261527381615237565b9050919050565b7f4552433732313a207472616e7366657220746f206e6f6e20455243373231526560008201527f63656976657220696d706c656d656e7465720000000000000000000000000000602082015250565b60006152d660328361383f565b91506152e18261527a565b604082019050919050565b60006020820190508181036000830152615305816152c9565b9050919050565b600081519050919050565b600082825260208201905092915050565b60006153338261530c565b61533d8185615317565b935061534d818560208601613850565b6153568161387a565b840191505092915050565b60006080820190506153766000830187613971565b6153836020830186613971565b615390604083018561380a565b81810360608301526153a28184615328565b905095945050505050565b6000815190506153bc81613771565b92915050565b6000602082840312156153d8576153d761373b565b5b60006153e6848285016153ad565b91505092915050565b7f4e487b7100000000000000000000000000000000000000000000000000000000600052603160045260246000fd5b7f4552433732313a206d696e7420746f20746865207a65726f2061646472657373600082015250565b600061545460208361383f565b915061545f8261541e565b602082019050919050565b6000602082019050818103600083015261548381615447565b9050919050565b7f4552433732313a20746f6b656e20616c7265616479206d696e74656400000000600082015250565b60006154c0601c8361383f565b91506154cb8261548a565b602082019050919050565b600060208201905081810360008301526154ef816154b3565b905091905056fea264697066735822122036fbc5169391bb22b92d3198ef0e48e5d946e4d127d21c633a981d0f35f0591664736f6c63430008110033",
  "immutableReferences": {},
  "source": "// SPDX-License-Identifier: MIT\r\npragma solidity >=0.7.0 <0.9.0;\r\n\r\nimport \"./ERC721.sol\";\r\nimport \"./ERC721Enumerable.sol\";\r\nimport \"@openzeppelin/contracts/access/Ownable.sol\";\r\n\r\ncontract NFTMarketplace is ERC721Enumerable, Ownable {\r\n    using Strings for uint256;\r\n    mapping(string => uint8) existingURIs;\r\n    mapping(uint256 => address) public tokenHolders;\r\n\r\n    address public artist;\r\n    uint256 public royaltyFee;\r\n    uint256 public supply = 0;\r\n    uint256 public totalTransactions = 0;\r\n    uint256 public mintingCost = 0.01 ether;\r\n\r\n    event Sale(\r\n        uint256 id,\r\n        address indexed owner,\r\n        uint256 cost,\r\n        string metadataURI,\r\n        uint256 timestamp\r\n    );\r\n\r\n    struct Transaction {\r\n        uint256 id;\r\n        address owner;\r\n        uint256 cost;\r\n        string title;\r\n        string description;\r\n        string metadataURI;\r\n        uint256 timestamp;\r\n    }\r\n\r\n    Transaction[] pastTransactions;\r\n    Transaction[] currentSupply;\r\n\r\n    constructor(\r\n        string memory _name,\r\n        string memory _symbol,\r\n        uint256 _royaltyFee,\r\n        address _artist\r\n    ) ERC721(_name, _symbol) {\r\n        royaltyFee = _royaltyFee;\r\n        artist = _artist;\r\n    }\r\n\r\n    function mintNewToken(\r\n        string memory title,\r\n        string memory description,\r\n        string memory metadataURI,\r\n        uint256 salesPrice\r\n    ) external payable {\r\n        require(msg.value >= mintingCost, \"Ether too low for minting!\");\r\n        require(existingURIs[metadataURI] == 0, \"This NFT is already minted!\");\r\n        require(msg.sender != owner(), \"Sales not allowed!\");\r\n\r\n        uint256 royalty = (msg.value * royaltyFee) / 100;\r\n        payEther(artist, royalty);\r\n        payEther(owner(), (msg.value - royalty));\r\n\r\n        supply++;\r\n\r\n        currentSupply.push(\r\n            Transaction(\r\n                supply,\r\n                msg.sender,\r\n                salesPrice,\r\n                title,\r\n                description,\r\n                metadataURI,\r\n                block.timestamp\r\n            )\r\n        );\r\n\r\n        emit Sale(supply, msg.sender, msg.value, metadataURI, block.timestamp);\r\n\r\n        _safeMint(msg.sender, supply);\r\n        existingURIs[metadataURI] = 1;\r\n        tokenHolders[supply] = msg.sender;\r\n    }\r\n\r\n    function purchaseToken(uint256 id) external payable {\r\n        require(\r\n            msg.value >= currentSupply[id - 1].cost,\r\n            \"Ether too low for purchase!\"\r\n        );\r\n        require(\r\n            msg.sender != currentSupply[id - 1].owner,\r\n            \"Operation Not Allowed!\"\r\n        );\r\n\r\n        uint256 royalty = (msg.value * royaltyFee) / 100;\r\n        payEther(artist, royalty);\r\n        payEther(currentSupply[id - 1].owner, (msg.value - royalty));\r\n        totalTransactions++;\r\n\r\n        pastTransactions.push(\r\n            Transaction(\r\n                totalTransactions,\r\n                msg.sender,\r\n                msg.value,\r\n                currentSupply[id - 1].title,\r\n                currentSupply[id - 1].description,\r\n                currentSupply[id - 1].metadataURI,\r\n                block.timestamp\r\n            )\r\n        );\r\n\r\n        emit Sale(\r\n            totalTransactions,\r\n            msg.sender,\r\n            msg.value,\r\n            currentSupply[id - 1].metadataURI,\r\n            block.timestamp\r\n        );\r\n\r\n        currentSupply[id - 1].owner = msg.sender;\r\n    }\r\n\r\n    function updatePrice(uint256 id, uint256 newPrice) external returns (bool) {\r\n        require(newPrice > 0 ether, \"Ether too low!\");\r\n        require(\r\n            msg.sender == currentSupply[id - 1].owner,\r\n            \"Operation Not Allowed!\"\r\n        );\r\n\r\n        currentSupply[id - 1].cost = newPrice;\r\n        return true;\r\n    }\r\n\r\n    function payEther(address to, uint256 amount) internal {\r\n        (bool success, ) = payable(to).call{value: amount}(\"\");\r\n        require(success);\r\n    }\r\n\r\n    function getAllTokenInfo() public view returns (Transaction[] memory) {\r\n        return currentSupply;\r\n    }\r\n\r\n    function getTokenInfo(uint256 id) public view returns (Transaction memory) {\r\n        return currentSupply[id - 1];\r\n    }\r\n\r\n    function getPastTransactions() public view returns (Transaction[] memory) {\r\n        return pastTransactions;\r\n    }\r\n}\r\n",
  "sourcePath": "C:\\Users\\LILLY\\projects\\GroupZee-Project\\Nftmarketplace\\contracts\\NFTMarketplace.sol",
  "compiler": {
    "name": "solc",
    "version": "0.8.17+commit.8df45f5f.Emscripten.clang"
  },
  "schemaVersion": "3.4.11",
  "updatedAt": "2023-01-21T23:01:25.260Z",
  "networkType": "ethereum",
  "devdoc": {
    "kind": "dev",
    "methods": {
      "approve(address,uint256)": {
        "details": "See {IERC721-approve}."
      },
      "balanceOf(address)": {
        "details": "See {IERC721-balanceOf}."
      },
      "getApproved(uint256)": {
        "details": "See {IERC721-getApproved}."
      },
      "isApprovedForAll(address,address)": {
        "details": "See {IERC721-isApprovedForAll}."
      },
      "name()": {
        "details": "See {IERC721Metadata-name}."
      },
      "owner()": {
        "details": "Returns the address of the current owner."
      },
      "ownerOf(uint256)": {
        "details": "See {IERC721-ownerOf}."
      },
      "renounceOwnership()": {
        "details": "Leaves the contract without owner. It will not be possible to call `onlyOwner` functions anymore. Can only be called by the current owner. NOTE: Renouncing ownership will leave the contract without an owner, thereby removing any functionality that is only available to the owner."
      },
      "safeTransferFrom(address,address,uint256)": {
        "details": "See {IERC721-safeTransferFrom}."
      },
      "safeTransferFrom(address,address,uint256,bytes)": {
        "details": "See {IERC721-safeTransferFrom}."
      },
      "setApprovalForAll(address,bool)": {
        "details": "See {IERC721-setApprovalForAll}."
      },
      "supportsInterface(bytes4)": {
        "details": "See {IERC165-supportsInterface}."
      },
      "symbol()": {
        "details": "See {IERC721Metadata-symbol}."
      },
      "tokenByIndex(uint256)": {
        "details": "See {IERC721Enumerable-tokenByIndex}."
      },
      "tokenOfOwnerByIndex(address,uint256)": {
        "details": "See {IERC721Enumerable-tokenOfOwnerByIndex}."
      },
      "tokenURI(uint256)": {
        "details": "See {IERC721Metadata-tokenURI}."
      },
      "totalSupply()": {
        "details": "See {IERC721Enumerable-totalSupply}."
      },
      "transferFrom(address,address,uint256)": {
        "details": "See {IERC721-transferFrom}."
      },
      "transferOwnership(address)": {
        "details": "Transfers ownership of the contract to a new account (`newOwner`). Can only be called by the current owner."
      }
    },
    "version": 1
  },
  "userdoc": {
    "kind": "user",
    "methods": {},
    "version": 1
  }
}