{
  "contractName": "NFTMarketplace",
  "abi": [
    {
      "anonymous": false,
      "inputs": [
        {
          "indexed": false,
          "internalType": "address",
          "name": "sender",
          "type": "address"
        },
        {
          "indexed": false,
          "internalType": "uint256",
          "name": "tokenId",
          "type": "uint256"
        },
        {
          "indexed": false,
          "internalType": "string",
          "name": "title",
          "type": "string"
        },
        {
          "indexed": false,
          "internalType": "uint256",
          "name": "timestamp",
          "type": "uint256"
        },
        {
          "indexed": false,
          "internalType": "string",
          "name": "tokenPicture",
          "type": "string"
        },
        {
          "indexed": false,
          "internalType": "uint256",
          "name": "tokenPrice",
          "type": "uint256"
        }
      ],
      "name": "TokenCreated",
      "type": "event"
    },
    {
      "anonymous": false,
      "inputs": [
        {
          "indexed": false,
          "internalType": "address",
          "name": "sender",
          "type": "address"
        },
        {
          "indexed": false,
          "internalType": "uint256",
          "name": "tokenId",
          "type": "uint256"
        },
        {
          "indexed": false,
          "internalType": "uint256",
          "name": "newPrice",
          "type": "uint256"
        }
      ],
      "name": "TokenPriceChanged",
      "type": "event"
    },
    {
      "anonymous": false,
      "inputs": [
        {
          "indexed": false,
          "internalType": "address",
          "name": "from",
          "type": "address"
        },
        {
          "indexed": false,
          "internalType": "address",
          "name": "to",
          "type": "address"
        },
        {
          "indexed": false,
          "internalType": "uint256",
          "name": "tokenId",
          "type": "uint256"
        }
      ],
      "name": "TokenSold",
      "type": "event"
    },
    {
      "inputs": [],
      "name": "_TokenId",
      "outputs": [
        {
          "internalType": "uint256",
          "name": "_value",
          "type": "uint256"
        }
      ],
      "stateMutability": "view",
      "type": "function",
      "constant": true
    },
    {
      "inputs": [
        {
          "internalType": "string",
          "name": "",
          "type": "string"
        }
      ],
      "name": "mintedUrls",
      "outputs": [
        {
          "internalType": "bool",
          "name": "",
          "type": "bool"
        }
      ],
      "stateMutability": "view",
      "type": "function",
      "constant": true
    },
    {
      "inputs": [
        {
          "internalType": "uint256",
          "name": "",
          "type": "uint256"
        }
      ],
      "name": "tokens",
      "outputs": [
        {
          "internalType": "address",
          "name": "owner",
          "type": "address"
        },
        {
          "internalType": "uint256",
          "name": "id",
          "type": "uint256"
        },
        {
          "internalType": "string",
          "name": "tokenURL",
          "type": "string"
        },
        {
          "internalType": "string",
          "name": "title",
          "type": "string"
        },
        {
          "internalType": "uint256",
          "name": "price",
          "type": "uint256"
        },
        {
          "internalType": "string",
          "name": "description",
          "type": "string"
        },
        {
          "internalType": "uint256",
          "name": "timestamp",
          "type": "uint256"
        }
      ],
      "stateMutability": "view",
      "type": "function",
      "constant": true
    },
    {
      "inputs": [
        {
          "internalType": "string",
          "name": "tokenPicture",
          "type": "string"
        },
        {
          "internalType": "string",
          "name": "tokenTitle",
          "type": "string"
        },
        {
          "internalType": "string",
          "name": "tokenDescription",
          "type": "string"
        },
        {
          "internalType": "uint256",
          "name": "tokenPrice",
          "type": "uint256"
        }
      ],
      "name": "mint",
      "outputs": [],
      "stateMutability": "payable",
      "type": "function",
      "payable": true
    },
    {
      "inputs": [],
      "name": "listNFTs",
      "outputs": [
        {
          "components": [
            {
              "internalType": "address",
              "name": "owner",
              "type": "address"
            },
            {
              "internalType": "uint256",
              "name": "id",
              "type": "uint256"
            },
            {
              "internalType": "string",
              "name": "tokenURL",
              "type": "string"
            },
            {
              "internalType": "string",
              "name": "title",
              "type": "string"
            },
            {
              "internalType": "uint256",
              "name": "price",
              "type": "uint256"
            },
            {
              "internalType": "string",
              "name": "description",
              "type": "string"
            },
            {
              "internalType": "uint256",
              "name": "timestamp",
              "type": "uint256"
            }
          ],
          "internalType": "struct NFTMarketplace.Token[]",
          "name": "",
          "type": "tuple[]"
        }
      ],
      "stateMutability": "view",
      "type": "function",
      "constant": true
    },
    {
      "inputs": [],
      "name": "transactionHistory",
      "outputs": [
        {
          "components": [
            {
              "internalType": "address",
              "name": "owner",
              "type": "address"
            },
            {
              "internalType": "uint256",
              "name": "id",
              "type": "uint256"
            },
            {
              "internalType": "string",
              "name": "tokenURL",
              "type": "string"
            },
            {
              "internalType": "string",
              "name": "title",
              "type": "string"
            },
            {
              "internalType": "uint256",
              "name": "price",
              "type": "uint256"
            },
            {
              "internalType": "string",
              "name": "description",
              "type": "string"
            },
            {
              "internalType": "uint256",
              "name": "timestamp",
              "type": "uint256"
            }
          ],
          "internalType": "struct NFTMarketplace.Token[]",
          "name": "",
          "type": "tuple[]"
        }
      ],
      "stateMutability": "view",
      "type": "function",
      "constant": true
    },
    {
      "inputs": [
        {
          "internalType": "uint256",
          "name": "tokenId",
          "type": "uint256"
        },
        {
          "internalType": "uint256",
          "name": "newPrice",
          "type": "uint256"
        }
      ],
      "name": "changePrice",
      "outputs": [],
      "stateMutability": "nonpayable",
      "type": "function"
    },
    {
      "inputs": [
        {
          "internalType": "uint256",
          "name": "tokenId",
          "type": "uint256"
        }
      ],
      "name": "buy",
      "outputs": [],
      "stateMutability": "payable",
      "type": "function",
      "payable": true
    }
  ],
  "bytecode": "0x608060405234801561001057600080fd5b506120f0806100206000396000f3fe60806040526004361061007b5760003560e01c8063aa4a994d1161004e578063aa4a994d14610135578063b3de019c14610172578063cecae8c91461019b578063d96a094a146101c65761007b565b8063254d40e914610080578063309506c6146100ab57806331b6475c146100d65780634f64b2be146100f2575b600080fd5b34801561008c57600080fd5b506100956101e2565b6040516100a29190611513565b60405180910390f35b3480156100b757600080fd5b506100c061046b565b6040516100cd9190611513565b60405180910390f35b6100f060048036038101906100eb91906116aa565b610779565b005b3480156100fe57600080fd5b5061011960048036038101906101149190611765565b610951565b60405161012c97969594939291906117fa565b60405180910390f35b34801561014157600080fd5b5061015c6004803603810190610157919061187e565b610b4b565b60405161016991906118e2565b60405180910390f35b34801561017e57600080fd5b50610199600480360381019061019491906118fd565b610b81565b005b3480156101a757600080fd5b506101b0610cc2565b6040516101bd919061193d565b60405180910390f35b6101e060048036038101906101db9190611765565b610cce565b005b60606001805480602002602001604051908101604052809291908181526020016000905b8282101561046257838290600052602060002090600702016040518060e00160405290816000820160009054906101000a900473ffffffffffffffffffffffffffffffffffffffff1673ffffffffffffffffffffffffffffffffffffffff1673ffffffffffffffffffffffffffffffffffffffff1681526020016001820154815260200160028201805461029990611987565b80601f01602080910402602001604051908101604052809291908181526020018280546102c590611987565b80156103125780601f106102e757610100808354040283529160200191610312565b820191906000526020600020905b8154815290600101906020018083116102f557829003601f168201915b5050505050815260200160038201805461032b90611987565b80601f016020809104026020016040519081016040528092919081815260200182805461035790611987565b80156103a45780601f10610379576101008083540402835291602001916103a4565b820191906000526020600020905b81548152906001019060200180831161038757829003601f168201915b50505050508152602001600482015481526020016005820180546103c790611987565b80601f01602080910402602001604051908101604052809291908181526020018280546103f390611987565b80156104405780601f1061041557610100808354040283529160200191610440565b820191906000526020600020905b81548152906001019060200180831161042357829003601f168201915b5050505050815260200160068201548152505081526020019060010190610206565b50505050905090565b6060600060038054905067ffffffffffffffff81111561048e5761048d611553565b5b6040519080825280602002602001820160405280156104c757816020015b6104b461126a565b8152602001906001900390816104ac5790505b50905060005b6003805490508110156107715760026000600383815481106104f2576104f16119b8565b5b906000526020600020015481526020019081526020016000206040518060e00160405290816000820160009054906101000a900473ffffffffffffffffffffffffffffffffffffffff1673ffffffffffffffffffffffffffffffffffffffff1673ffffffffffffffffffffffffffffffffffffffff1681526020016001820154815260200160028201805461058690611987565b80601f01602080910402602001604051908101604052809291908181526020018280546105b290611987565b80156105ff5780601f106105d4576101008083540402835291602001916105ff565b820191906000526020600020905b8154815290600101906020018083116105e257829003601f168201915b5050505050815260200160038201805461061890611987565b80601f016020809104026020016040519081016040528092919081815260200182805461064490611987565b80156106915780601f1061066657610100808354040283529160200191610691565b820191906000526020600020905b81548152906001019060200180831161067457829003601f168201915b50505050508152602001600482015481526020016005820180546106b490611987565b80601f01602080910402602001604051908101604052809291908181526020018280546106e090611987565b801561072d5780601f106107025761010080835404028352916020019161072d565b820191906000526020600020905b81548152906001019060200180831161071057829003601f168201915b50505050508152602001600682015481525050828281518110610753576107526119b8565b5b6020026020010181905250808061076990611a16565b9150506104cd565b508091505090565b6004846040516107899190611a9a565b908152602001604051809103902060009054906101000a900460ff16156107e5576040517f08c379a00000000000000000000000000000000000000000000000000000000081526004016107dc90611b23565b60405180910390fd5b6107ef60006111cb565b60006107fb60006111e1565b90506000600260008381526020019081526020016000209050338160000160006101000a81548173ffffffffffffffffffffffffffffffffffffffff021916908373ffffffffffffffffffffffffffffffffffffffff160217905550818160010181905550858160020190816108719190611cef565b50848160030190816108839190611cef565b508281600401819055508381600501908161089e9190611cef565b5042816006018190555060038290806001815401808255809150506001900390600052602060002001600090919091909150557fac26ffc544bee239861e85acff0ceeec9559de6e85a232d4ddf3a7a9ad45bf11338387428a8860405161090a96959493929190611dc1565b60405180910390a160016004876040516109249190611a9a565b908152602001604051809103902060006101000a81548160ff021916908315150217905550505050505050565b60026020528060005260406000206000915090508060000160009054906101000a900473ffffffffffffffffffffffffffffffffffffffff16908060010154908060020180546109a090611987565b80601f01602080910402602001604051908101604052809291908181526020018280546109cc90611987565b8015610a195780601f106109ee57610100808354040283529160200191610a19565b820191906000526020600020905b8154815290600101906020018083116109fc57829003601f168201915b505050505090806003018054610a2e90611987565b80601f0160208091040260200160405190810160405280929190818152602001828054610a5a90611987565b8015610aa75780601f10610a7c57610100808354040283529160200191610aa7565b820191906000526020600020905b815481529060010190602001808311610a8a57829003601f168201915b505050505090806004015490806005018054610ac290611987565b80601f0160208091040260200160405190810160405280929190818152602001828054610aee90611987565b8015610b3b5780601f10610b1057610100808354040283529160200191610b3b565b820191906000526020600020905b815481529060010190602001808311610b1e57829003601f168201915b5050505050908060060154905087565b6004818051602081018201805184825260208301602085012081835280955050505050506000915054906101000a900460ff1681565b3373ffffffffffffffffffffffffffffffffffffffff166002600084815260200190815260200160002060000160009054906101000a900473ffffffffffffffffffffffffffffffffffffffff1673ffffffffffffffffffffffffffffffffffffffff1614610c25576040517f08c379a0000000000000000000000000000000000000000000000000000000008152600401610c1c90611ea2565b60405180910390fd5b60008111610c68576040517f08c379a0000000000000000000000000000000000000000000000000000000008152600401610c5f90611f0e565b60405180910390fd5b8060026000848152602001908152602001600020600401819055507f73dd84a04ccce6980e8996a09339cde4353e22fa20400d4e32326412a3667a49338383604051610cb693929190611f2e565b60405180910390a15050565b60008060000154905081565b3373ffffffffffffffffffffffffffffffffffffffff166002600083815260200190815260200160002060000160009054906101000a900473ffffffffffffffffffffffffffffffffffffffff1673ffffffffffffffffffffffffffffffffffffffff1603610d72576040517f08c379a0000000000000000000000000000000000000000000000000000000008152600401610d6990611fb1565b60405180910390fd5b6002600082815260200190815260200160002060040154341015610dcb576040517f08c379a0000000000000000000000000000000000000000000000000000000008152600401610dc29061201d565b60405180910390fd5b610e0b6002600083815260200190815260200160002060000160009054906101000a900473ffffffffffffffffffffffffffffffffffffffff16346111ef565b336002600083815260200190815260200160002060000160006101000a81548173ffffffffffffffffffffffffffffffffffffffff021916908373ffffffffffffffffffffffffffffffffffffffff1602179055507fd4cffd6979677853b45a7a17f455188a434e975ba474c5a2613c94beacea537a6002600083815260200190815260200160002060000160009054906101000a900473ffffffffffffffffffffffffffffffffffffffff163383604051610ec99392919061203d565b60405180910390a160016040518060e001604052803373ffffffffffffffffffffffffffffffffffffffff168152602001348152602001600260008581526020019081526020016000206002018054610f2190611987565b80601f0160208091040260200160405190810160405280929190818152602001828054610f4d90611987565b8015610f9a5780601f10610f6f57610100808354040283529160200191610f9a565b820191906000526020600020905b815481529060010190602001808311610f7d57829003601f168201915b50505050508152602001600260008581526020019081526020016000206003018054610fc590611987565b80601f0160208091040260200160405190810160405280929190818152602001828054610ff190611987565b801561103e5780601f106110135761010080835404028352916020019161103e565b820191906000526020600020905b81548152906001019060200180831161102157829003601f168201915b5050505050815260200183815260200160026000858152602001908152602001600020600501805461106f90611987565b80601f016020809104026020016040519081016040528092919081815260200182805461109b90611987565b80156110e85780601f106110bd576101008083540402835291602001916110e8565b820191906000526020600020905b8154815290600101906020018083116110cb57829003601f168201915b5050505050815260200142815250908060018154018082558091505060019003906000526020600020906007020160009091909190915060008201518160000160006101000a81548173ffffffffffffffffffffffffffffffffffffffff021916908373ffffffffffffffffffffffffffffffffffffffff1602179055506020820151816001015560408201518160020190816111859190611cef565b50606082015181600301908161119b9190611cef565b506080820151816004015560a08201518160050190816111bb9190611cef565b5060c08201518160060155505050565b6001816000016000828254019250508190555050565b600081600001549050919050565b60008273ffffffffffffffffffffffffffffffffffffffff1682604051611215906120a5565b60006040518083038185875af1925050503d8060008114611252576040519150601f19603f3d011682016040523d82523d6000602084013e611257565b606091505b505090508061126557600080fd5b505050565b6040518060e00160405280600073ffffffffffffffffffffffffffffffffffffffff1681526020016000815260200160608152602001606081526020016000815260200160608152602001600081525090565b600081519050919050565b600082825260208201905092915050565b6000819050602082019050919050565b600073ffffffffffffffffffffffffffffffffffffffff82169050919050565b6000611314826112e9565b9050919050565b61132481611309565b82525050565b6000819050919050565b61133d8161132a565b82525050565b600081519050919050565b600082825260208201905092915050565b60005b8381101561137d578082015181840152602081019050611362565b60008484015250505050565b6000601f19601f8301169050919050565b60006113a582611343565b6113af818561134e565b93506113bf81856020860161135f565b6113c881611389565b840191505092915050565b600060e0830160008301516113eb600086018261131b565b5060208301516113fe6020860182611334565b5060408301518482036040860152611416828261139a565b91505060608301518482036060860152611430828261139a565b91505060808301516114456080860182611334565b5060a083015184820360a086015261145d828261139a565b91505060c083015161147260c0860182611334565b508091505092915050565b600061148983836113d3565b905092915050565b6000602082019050919050565b60006114a9826112bd565b6114b381856112c8565b9350836020820285016114c5856112d9565b8060005b8581101561150157848403895281516114e2858261147d565b94506114ed83611491565b925060208a019950506001810190506114c9565b50829750879550505050505092915050565b6000602082019050818103600083015261152d818461149e565b905092915050565b6000604051905090565b600080fd5b600080fd5b600080fd5b600080fd5b7f4e487b7100000000000000000000000000000000000000000000000000000000600052604160045260246000fd5b61158b82611389565b810181811067ffffffffffffffff821117156115aa576115a9611553565b5b80604052505050565b60006115bd611535565b90506115c98282611582565b919050565b600067ffffffffffffffff8211156115e9576115e8611553565b5b6115f282611389565b9050602081019050919050565b82818337600083830152505050565b600061162161161c846115ce565b6115b3565b90508281526020810184848401111561163d5761163c61154e565b5b6116488482856115ff565b509392505050565b600082601f83011261166557611664611549565b5b813561167584826020860161160e565b91505092915050565b6116878161132a565b811461169257600080fd5b50565b6000813590506116a48161167e565b92915050565b600080600080608085870312156116c4576116c361153f565b5b600085013567ffffffffffffffff8111156116e2576116e1611544565b5b6116ee87828801611650565b945050602085013567ffffffffffffffff81111561170f5761170e611544565b5b61171b87828801611650565b935050604085013567ffffffffffffffff81111561173c5761173b611544565b5b61174887828801611650565b925050606061175987828801611695565b91505092959194509250565b60006020828403121561177b5761177a61153f565b5b600061178984828501611695565b91505092915050565b61179b81611309565b82525050565b6117aa8161132a565b82525050565b600082825260208201905092915050565b60006117cc82611343565b6117d681856117b0565b93506117e681856020860161135f565b6117ef81611389565b840191505092915050565b600060e08201905061180f600083018a611792565b61181c60208301896117a1565b818103604083015261182e81886117c1565b9050818103606083015261184281876117c1565b905061185160808301866117a1565b81810360a083015261186381856117c1565b905061187260c08301846117a1565b98975050505050505050565b6000602082840312156118945761189361153f565b5b600082013567ffffffffffffffff8111156118b2576118b1611544565b5b6118be84828501611650565b91505092915050565b60008115159050919050565b6118dc816118c7565b82525050565b60006020820190506118f760008301846118d3565b92915050565b600080604083850312156119145761191361153f565b5b600061192285828601611695565b925050602061193385828601611695565b9150509250929050565b600060208201905061195260008301846117a1565b92915050565b7f4e487b7100000000000000000000000000000000000000000000000000000000600052602260045260246000fd5b6000600282049050600182168061199f57607f821691505b6020821081036119b2576119b1611958565b5b50919050565b7f4e487b7100000000000000000000000000000000000000000000000000000000600052603260045260246000fd5b7f4e487b7100000000000000000000000000000000000000000000000000000000600052601160045260246000fd5b6000611a218261132a565b91507fffffffffffffffffffffffffffffffffffffffffffffffffffffffffffffffff8203611a5357611a526119e7565b5b600182019050919050565b600081905092915050565b6000611a7482611343565b611a7e8185611a5e565b9350611a8e81856020860161135f565b80840191505092915050565b6000611aa68284611a69565b915081905092915050565b7f546f6b656e20776974682074686973207069637475726520616c72656164792060008201527f6578697374732e00000000000000000000000000000000000000000000000000602082015250565b6000611b0d6027836117b0565b9150611b1882611ab1565b604082019050919050565b60006020820190508181036000830152611b3c81611b00565b9050919050565b60008190508160005260206000209050919050565b60006020601f8301049050919050565b600082821b905092915050565b600060088302611ba57fffffffffffffffffffffffffffffffffffffffffffffffffffffffffffffffff82611b68565b611baf8683611b68565b95508019841693508086168417925050509392505050565b6000819050919050565b6000611bec611be7611be28461132a565b611bc7565b61132a565b9050919050565b6000819050919050565b611c0683611bd1565b611c1a611c1282611bf3565b848454611b75565b825550505050565b600090565b611c2f611c22565b611c3a818484611bfd565b505050565b5b81811015611c5e57611c53600082611c27565b600181019050611c40565b5050565b601f821115611ca357611c7481611b43565b611c7d84611b58565b81016020851015611c8c578190505b611ca0611c9885611b58565b830182611c3f565b50505b505050565b600082821c905092915050565b6000611cc660001984600802611ca8565b1980831691505092915050565b6000611cdf8383611cb5565b9150826002028217905092915050565b611cf882611343565b67ffffffffffffffff811115611d1157611d10611553565b5b611d1b8254611987565b611d26828285611c62565b600060209050601f831160018114611d595760008415611d47578287015190505b611d518582611cd3565b865550611db9565b601f198416611d6786611b43565b60005b82811015611d8f57848901518255600182019150602085019450602081019050611d6a565b86831015611dac5784890151611da8601f891682611cb5565b8355505b6001600288020188555050505b505050505050565b600060c082019050611dd66000830189611792565b611de360208301886117a1565b8181036040830152611df581876117c1565b9050611e0460608301866117a1565b8181036080830152611e1681856117c1565b9050611e2560a08301846117a1565b979650505050505050565b7f596f7520617265206e6f7420746865206f776e6572206f66207468697320746f60008201527f6b656e2e00000000000000000000000000000000000000000000000000000000602082015250565b6000611e8c6024836117b0565b9150611e9782611e30565b604082019050919050565b60006020820190508181036000830152611ebb81611e7f565b9050919050565b7f5072696365206d7573742062652067726561746572207468616e20302e000000600082015250565b6000611ef8601d836117b0565b9150611f0382611ec2565b602082019050919050565b60006020820190508181036000830152611f2781611eeb565b9050919050565b6000606082019050611f436000830186611792565b611f5060208301856117a1565b611f5d60408301846117a1565b949350505050565b7f596f752063616e6e6f742062757920796f7572206f776e20746f6b656e2e0000600082015250565b6000611f9b601e836117b0565b9150611fa682611f65565b602082019050919050565b60006020820190508181036000830152611fca81611f8e565b9050919050565b7f496e73756666696369656e742066756e64732e00000000000000000000000000600082015250565b60006120076013836117b0565b915061201282611fd1565b602082019050919050565b6000602082019050818103600083015261203681611ffa565b9050919050565b60006060820190506120526000830186611792565b61205f6020830185611792565b61206c60408301846117a1565b949350505050565b600081905092915050565b50565b600061208f600083612074565b915061209a8261207f565b600082019050919050565b60006120b082612082565b915081905091905056fea2646970667358221220307cce4200e800c26ca646581873d989234e594278394a00e5e6f7903530cc0264736f6c63430008110033",
  "immutableReferences": {},
  "source": "// SPDX-License-Identifier: MIT\r\n\r\npragma solidity ^0.8.0;\r\n\r\nimport \"@openzeppelin/contracts/utils/Counters.sol\";\r\n\r\ncontract NFTMarketplace {\r\n    using Counters for Counters.Counter;\r\n\r\n    Counters.Counter public _TokenId;\r\n    // Counters.Counter public _candidateId;\r\n\r\n    struct Token {\r\n        address owner;\r\n        uint256 id;\r\n        string tokenURL;\r\n        string title;\r\n        uint256 price;\r\n        string description;\r\n        uint256 timestamp;\r\n    }\r\n    Token[] transactions;\r\n    mapping(uint256 => Token) public tokens;\r\n    uint256[] private tokenIdNumber;\r\n\r\n    mapping(string => bool) public mintedUrls;\r\n\r\n    event TokenCreated(\r\n        address sender,\r\n        uint256 tokenId,\r\n        string title,\r\n        uint256 timestamp,\r\n        string tokenPicture,\r\n        uint256 tokenPrice\r\n    );\r\n\r\n    event TokenSold(address from, address to, uint256 tokenId);\r\n\r\n    event TokenPriceChanged(address sender, uint256 tokenId, uint256 newPrice);\r\n\r\n    function mint(\r\n        string memory tokenPicture,\r\n        string memory tokenTitle,\r\n        string memory tokenDescription,\r\n        uint256 tokenPrice\r\n    ) public payable {\r\n        require(\r\n            !mintedUrls[tokenPicture],\r\n            \"Token with this picture already exists.\"\r\n        );\r\n        _TokenId.increment();\r\n\r\n        uint256 tokenId = _TokenId.current();\r\n\r\n        Token storage tk = tokens[tokenId];\r\n\r\n        tk.owner = msg.sender;\r\n        tk.id = tokenId;\r\n        tk.tokenURL = tokenPicture;\r\n        tk.title = tokenTitle;\r\n        tk.price = tokenPrice;\r\n        tk.description = tokenDescription;\r\n        tk.timestamp = block.timestamp;\r\n\r\n        tokenIdNumber.push(tokenId);\r\n\r\n        emit TokenCreated(\r\n            msg.sender,\r\n            tokenId,\r\n            tokenTitle,\r\n            block.timestamp,\r\n            tokenPicture,\r\n            tokenPrice\r\n        );\r\n        mintedUrls[tokenPicture] = true;\r\n    }\r\n\r\n    function listNFTs() public view returns (Token[] memory) {\r\n        Token[] memory result = new Token[](tokenIdNumber.length);\r\n        for (uint256 i = 0; i < tokenIdNumber.length; i++) {\r\n            result[i] = tokens[tokenIdNumber[i]];\r\n        }\r\n        return result;\r\n    }\r\n\r\n    function transactionHistory() public view returns (Token[] memory) {\r\n        return transactions;\r\n    }\r\n\r\n    function changePrice(uint256 tokenId, uint256 newPrice) public {\r\n        require(\r\n            tokens[tokenId].owner == msg.sender,\r\n            \"You are not the owner of this token.\"\r\n        );\r\n        require(newPrice > 0, \"Price must be greater than 0.\");\r\n        tokens[tokenId].price = newPrice;\r\n\r\n        emit TokenPriceChanged(msg.sender, tokenId, newPrice);\r\n    }\r\n\r\n    function buy(uint256 tokenId) public payable {\r\n        require(\r\n            tokens[tokenId].owner != msg.sender,\r\n            \"You cannot buy your own token.\"\r\n        );\r\n        require(msg.value >= tokens[tokenId].price, \"Insufficient funds.\");\r\n\r\n        payEther(tokens[tokenId].owner, msg.value);\r\n\r\n        tokens[tokenId].owner = msg.sender;\r\n        emit TokenSold(tokens[tokenId].owner, msg.sender, tokenId);\r\n        transactions.push(\r\n            Token(\r\n                msg.sender,\r\n                msg.value,\r\n                tokens[tokenId].tokenURL,\r\n                tokens[tokenId].title,\r\n                tokenId,\r\n                tokens[tokenId].description,\r\n                block.timestamp\r\n            )\r\n        );\r\n    }\r\n\r\n    // function getTokenDetails()\r\n    //     public\r\n    //     view\r\n    //     returns (Token[] memory)\r\n    // {\r\n    //     return tokens;\r\n    // }\r\n\r\n    function payEther(address to, uint256 amount) internal {\r\n        (bool success, ) = payable(to).call{value: amount}(\"\");\r\n        require(success);\r\n    }\r\n}\r\n",
  "sourcePath": "C:\\Users\\LILLY\\projects\\GroupZee-Project\\Nftmarketplace\\contracts\\NFTMarketplace.sol",
  "compiler": {
    "name": "solc",
    "version": "0.8.17+commit.8df45f5f.Emscripten.clang"
  },
  "schemaVersion": "3.4.11",
  "updatedAt": "2023-01-22T02:51:52.365Z",
  "networkType": "ethereum",
  "devdoc": {
    "kind": "dev",
    "methods": {},
    "version": 1
  },
  "userdoc": {
    "kind": "user",
    "methods": {},
    "version": 1
  }
}